:020000041000EA
:1000000000B5324B212058609868022188439860DF
:10001000D860186158612E4B002199600221596106
:100020000121F02299502B49196001219960352056
:1000300000F044F80222904214D00621196600F024
:1000400034F8196E01211966002018661A6600F04E
:100050002CF8196E196E196E052000F02FF8012189
:100060000842F9D1002199601B49196000215960AB
:100070001A491B48016001219960EB211966A021F2
:10008000196600F012F800219960164914480160C1
:100090000121996001BC002800D000471248134993
:1000A000086003C880F30888084703B5996A0420EC
:1000B0000142FBD001200142F8D103BD02B5186610
:1000C0001866FFF7F2FF186E186E02BD00000240BE
:1000D000000000180000070000035F00212200005C
:1000E000F4000018222000A00001001008ED00E03C
:1000F00000000000000000000000000074B24E7A12
:1001000000200420F7010010CB010010CD010010E9
:10011000C9010010C9010010C9010010C901001077
:10012000C9010010C9010010C9010010CF01001061
:10013000C9010010C9010010D1010010D301001045
:10014000C1010010C1010010C1010010C101001067
:10015000C1010010C1010010C1010010C101001057
:10016000C1010010C1010010C1010010C101001047
:10017000C1010010C1010010C1010010C101001037
:10018000C1010010C1010010C1010010C101001027
:10019000C1010010C1010010C1010010C101001017
:1001A000C1010010C1010010C1010010C101001007
:1001B000C1010010C1010010C1010010C1010010F7
:1001C000EFF30580103800BE00BE00BE00BE00BECA
:1001D00000BE00BEF2EB8871C4260610E8260610A9
:1001E0003802001090A31AE700201E49086006C8D4
:1001F00081F3088810471C480068002801D00020BF
:10020000F3E70DA40ECC002902D000F012F8F9E7B4
:100210001649174A002000E001C19142FCD115495E
:100220008847154988471549884700BEFDE701C939
:1002300001C29A42FBD37047E8260610E000002076
:100240000C180020143E06100000042000000420BA
:10025000143E0610001004200010042000000000CE
:100260007047000008ED00E0000000D00C180020EE
:100270008813012085450010710B001045450010C2
:1002800001230360034A4260034A8260034AC2605A
:10029000037470470020E1430000B441000068424D
:1002A00010B50F2000F0F0FDD0231B0680221202B3
:1002B0009A62002201210F2000F04AFD10BD0000CB
:1002C00010B50D4B1B7C002B0AD10B4B01221A746D
:1002D0000121002012F09CFA084804F0D7FA10BD62
:1002E000054B00221A740021002012F091FA0448F4
:1002F00004F0CCFAF3E7C046F42F0020D0DC011064
:10030000ECDC011010B50A1E04D10549054804F0C3
:10031000EDFA10BD0249044804F0E8FAF9E7C046D6
:1003200008DD011018DD011050DD011010B50029A5
:1003300000D110BD014804F0D9FAFAE788DD0110B8
:1003400010B50400081E0ED0094B0A681A60094B4C
:1003500001221A7011F096FF0200074B21001800CD
:1003600004F0C4FA10BD0548210004F0BFFAF9E713
:100370006C2F002076130120B4DD0110DCDD0110AC
:10038000F0B587B0514804F081FA514812F038FABC
:10039000061E2FD112F014FA4E4D0021280015F040
:1003A000FDFB0121002012F033FA04AC22000021F1
:1003B000280015F019FC21786278A378E578207977
:1003C000844660790290604601900095424804F0AE
:1003D0008DFA6179072319400131404B196040487B
:1003E00004F084FA3F49404804F080FA34000125C3
:1003F0006D4215E03D4804F049FA002039E0611CE7
:100400003B4804F073FAFA20C00001F059FD394965
:100410003448394B394A12F0A9FA051E05D0013487
:10042000022C02DC002CEADCF1E72A4C002120003F
:1004300015F0B0F80700324BE358002B03D1012828
:1004400019D0032817D0002D04D0224B2C4A9B58DA
:10045000002B30D023492B4804F048FA2A4811F0E9
:1004600011FF0100294B180004F040FA284B01202D
:10047000187007B0F0BD274804F008FA16F0B8F875
:10048000254C20000FF0E6FC20000FF00DFC16F0CC
:10049000B9F834001D2CD6DC12F0CAF9FA2040005D
:1004A00001F00EFD0B4B16495B58002B01D10134B6
:1004B000F0E73500C7E719483A00290004F016FABA
:1004C0000021080012F0A4F90020D2E71CDE011080
:1004D000435A0000A82000208CDE0110F42F0020D9
:1004E000D0DE011004DF01100CDF01105CDE011012
:1004F00034DF01106CDF0110307500000400400093
:10050000D808000004E00110802900202CE0011030
:100510007813012078DF01107C290020BCDF011056
:1005200010B50B00024A0348802103F0C3FF10BD41
:1005300050E00110702F0020F0B5C64600B58AB01B
:100540000F009046002833D000292ED0002A2ED04C
:10055000037C002B23D1184A046845688668C0686C
:10056000164908910792069302F048FD0490059100
:10057000301C02F043FD02900391281C02F03EFD66
:100580000090019123000E4A44462100380003F0F8
:1005900091FF002805DD404505D3002008E0094A09
:1005A000DAE7002004E0012002E0002000E0002063
:1005B0000AB080BCB846F0BD54E00110500E0020D7
:1005C00064E001105CE0011030B595B04E4B1B7833
:1005D000002B0FD04D4B1B78002B0DD04B4B1B78B5
:1005E000002B07D04A4B1B78002B03D1494B1B68CB
:1005F000002B39D015B030BD4749484811F034FDC3
:1006000000280BD0414B01221A70434811F03AFEEA
:100610000100434B180004F069F9DFE73F4B414804
:100620001C00190004F062F915F0E2FF3E4A3A4955
:100630000023200007F042FF050015F0E3FF2B1E0A
:1006400006D00533CAD03948290004F04FF9D1E764
:100650002E4B01221A70304811F014FE0100344B69
:10066000180004F043F9B9E72B4811F00BFE010024
:10067000304B314A180004F039F917F0F7F8254BE0
:10068000186000283CD02D4803AA002115F0ACFAD0
:100690006B46DB7B6A46117C507C294A01900091B5
:1006A00020210CA803F006FF1C22002105A802F05F
:1006B000FBFD0CAB05933C236A46138415F098FFB1
:1006C000204B1549134A106805AA01920022009296
:1006D000194A17F0D7F8050015F094FF002D00D146
:1006E00088E71948290004F001F90A4B1868002826
:1006F00000D17FE717F0C1F8064B00221A6079E7B6
:10070000124804F0C3F875E778130120761301202E
:1007100077130120F02F00206C2F0020CCE0011077
:10072000DCE0011010E101104103001068E101104C
:100730003CE1011098E101105B070000A8200020B7
:1007400000E20110510700101CE20110C8E1011085
:1007500030B583B00500111E15D1134804F096F88A
:10076000124B01241C70124A12490023280017F072
:1007700071F8114B1149019400220092280016F0E3
:10078000C5FF03B030BD0E4804F0B0F8074B00229F
:100790001A700C4B18680028F3D017F06EF8094B4C
:1007A00000221A60EDE7C04654E2011077130120E1
:1007B000C9070010210500100503001008DD011015
:1007C00080E20110F02F002030B5C5B01400FF2AE0
:1007D00000D9FF2404AD2200280002F06BFD0022A6
:1007E0002A55244924482A0004F080F82349280087
:1007F00018F046FA002829D0214804F047F8FFF7FE
:100800005FFD204904A818F03BFA041E1CD01022FA
:100810000021684602F048FD1B496A46200017F097
:1008200095FF012806D019496A46200017F08EFF6F
:10083000012809D1164C0F226946200018F08CF8C7
:100840001448210004F052F845B030BD1249280088
:1008500018F016FA0028CFD11049280018F010FA25
:100860000028C9D10E49280018F00AFA0028C3D17F
:10087000C7E7C046702F0020BCE20110E0E2011083
:1008800020E3011060E3011068E301107CE3011034
:10089000500E002090E30110F0E2011000E301107F
:1008A00010E30110F8B501F009FC04000D001DF083
:1008B000D7F9002806D1D0231B065B681B0402D49D
:1008C000012000E001201F4B1B78834213D01E4BF8
:1008D0000CCB26002F00B61A9F41002F03D10AD15E
:1008E0001A4B9E4207D9184B1C605D60154B18705F
:1008F000002805D01BE0002802D1124B00221A70FC
:10090000002003F097FF041E10DB002003F092FF8D
:100910000028FADA732C0BD0532C0BD0202C0BD0E0
:10092000742C0BD0542C0BD0002000E00020F8BD1C
:100930000120FCE70120FAE70120F8E70120F6E7B3
:100940000120F4E77F130120E0190020F0490200A4
:10095000F8B504000F1C037C002B51D083681E1CCB
:10096000191C544802F0BDFA051C534902F008FB5B
:10097000002800D179E05149381C02F0CCFA291C3A
:1009800002F0C9FA011C301C02F0AEFAA06001238B
:100990002374E3681D1C4A49181C02F0F1FA002870
:1009A00000D175E0A068434902F0A1FA454902F080
:1009B000B2FA391C02F0AFFA011C281C02F091FABD
:1009C000E0603F4902F0D6FA002801D03C4BE360DA
:1009D00063681D1C3C49181C02F0D2FA002843D061
:1009E000A0683A4902F0CCFA00283DD03849381CBA
:1009F00002F091FA011C281C02F073FA606033E0E7
:100A000083681D1C3349181C02F0BAFA002811D063
:100A10003049281C02F065FA061C2749381C02F0F0
:100A20007AFA011C301C02F076FA011C281C02F034
:100A300058FAA060E3681D1C2749181C02F09AFAB6
:100A4000002811D0291C244802F04BFA061C234927
:100A5000381C02F060FA011C301C02F05CFA011C28
:100A6000281C02F041FAE060F8BD01F027FB02F01B
:100A7000BBFA1B4902F03BFA02F0D8FA194902F01E
:100A80004AFA0C4902F030FAA0600223237480E78E
:100A900001F014FB02F0A8FA134902F028FA02F060
:100AA000B3FA124902F037FA054902F01DFAE06084
:100AB0008EE7C04600005C42CDCC4C3D0AD7233DBA
:100AC000000070413333B33E00C0DC4300000C42F1
:100AD0006F12833B0000B441000068428FC2F53CB6
:100AE0000024F449CDCC4C3E001B374A9A99193E5C
:100AF00030B595B001000400174803F0F7FE174B1E
:100B00001868002803D017F095F8002801D115B017
:100B100030BD134B1B68134A402104A803F0CAFCE4
:100B200015F066FD200018F0D9F983B20B4A106861
:100B3000002203920C49029101920092220004A922
:100B400016F03EFD050015F05DFD002DDFD00748D5
:100B5000290003F0CBFEDAE7C0E30110F02F0020FC
:100B6000F42F0020D0E301102D030010E4E3011066
:100B7000F0B5B5B003F05AFEFFF792FB01F09EFA14
:100B8000002906D0FA229200002301F0F9FD0400AA
:100B900010E0FA21890001F0B5FD04000AE0FA2115
:100BA000890001F0AFFD001B424B984210D8322063
:100BB00001F086F904F016F8002809D101F07EFA58
:100BC0000029ECD0FA229200002301F0D9FDEAE7D7
:100BD000394803F05BFE394803F058FE384803F00B
:100BE00055FE3848FFF74CFBFFF7CAFB01F066FAE9
:100BF00006000F0001F062FA009001912AE0FFF771
:100C0000E3FC35E0FFF75CFB2E48C82202A9FFF7A2
:100C100093FC002830D002A8FFF76AFF2CE02A4B93
:100C2000984232D902F0E0F9284902F060F9011C3B
:100C3000244B1800FFF78CFE0094019525E0002B53
:100C400005D1234B994227D801E026002F000A2026
:100C500001F036F911F0ECFD01F030FA04000D005E
:100C60001C4B1B78002B03D01B4B1B78002BC6D0D2
:100C7000FFF718FE0028C5D120002900009A019B2B
:100C8000801A99410029CDD1C9D022002B00921B96
:100C9000BB411100002BD2D00A48C82202A9FFF79D
:100CA0004BFC0028D1D002A8FFF722FF26002F001E
:100CB000CDE7C046B80B000018E4011050E4011065
:100CC00088E40110F42F00209F860100002474495D
:100CD0003F420F00781301207713012010B594468E
:100CE000072202409200C008914002003C3292006C
:100CF000094C115180001B186246002A05D0802241
:100D0000920194466344196010BDC022920194463A
:100D100063441960F8E7C0460040014010B5830005
:100D2000084A9A18126840245440C0222240064CB7
:100D3000A44663441A60C000044B9C466044416072
:100D400010BDC04604C0014004D001400040014035
:100D500080000B4B9C46604400290ED00823002ADB
:100D600000D004221343026853400C221340802217
:100D7000520194466044036070470023EFE7C04689
:100D800004C00140002906D08000064B9C46604408
:100D90000223036070478000034B9C46604402239B
:100DA0000360F7E704E0014004F0014070B505007E
:100DB0000E00141E04D00D2000F028FA00280ED0DA
:100DC000D0231B061A6853009B181B01074A944640
:100DD0006344220031002800FFF780FF70BD044B00
:100DE000044A0548BD2103F0B1FBC0460041014063
:100DF000C0E4011014340210ECE4011070B50D00D1
:100E0000D0231B061B689900094C0959084208D1D8
:100E10009B0008430649585029000D2000F030FA85
:100E200070BD044B044A0548DC2103F08FFBC0462B
:100E3000DC10012034E50110E0330210ECE4011075
:100E400010B50400D0231B061A680B4B9200D35830
:100E500018420BD00D2000F01FFBD0231B061A6890
:100E6000054B9200D158A143D15010BD034B044A09
:100E70000448F02103F06AFBDC10012060E501105A
:100E8000BC330210ECE4011010B501238340D022E2
:100E90001206936293610521FFF740FF10BD000029
:100EA00010B58023DB05186803051B0D0B4A934220
:100EB00007D10B4B034080229201934207D1000FD0
:100EC00010BD084B084A0948132103F03FFB084BAB
:100ED000054A0648142103F039FBC04627090000E3
:100EE00000F0FF0F8CE501102C340210B0E501106A
:100EF000F8E501100FB400B583B0084803F0C6FC54
:100F0000049B002B07D005A90191180003F0CEFC2B
:100F1000034803F0BBFC012003F0F4FA0CE60110D7
:100F200018DE0110EFF3108072B6034B1B68002B24
:100F3000FBD0BFF35F8F70472C0100D0BFF35F8FF2
:100F4000024B00221A6080F3108870472C0100D0F9
:100F500070B505000C001600FFF7E4FFE308EA187F
:100F60009446E95C07222240012393400B4206D1BC
:100F7000DBB20B4362461370FFF7E0FF70BD210048
:100F80003000FFF7B7FFF0B583B005000191140002
:100F90001E00FFF7C7FF00E00134B4420CD8E3089D
:100FA000EF18EB5C0721214001228A401A42F3D15D
:100FB000D2B21A433A7001E001246442FFF7BEFF47
:100FC000002C02DB200003B0F0BD019B002BF9D008
:100FD0000898FFF78FFF000070B505000C00FFF7C1
:100FE000A1FFE308EA189446EA5C072121400123A7
:100FF0008B40134205D09A4363461A70FFF79EFF59
:1010000070BD034B034A0448332103F09FFAC046E6
:101010001CE60110403402103CE60110054A10782D
:10102000431CDBB21370172B02D9130010221A7065
:101030007047C046600E002000B583B00100044830
:10104000044B00931F231822FFF79DFF03B000BD40
:101050006420002084E60110002307E0054A9A1866
:101060009200BFF35F8F0021116001331F2BF5D970
:101070007047C04640000034074B9B68103080002A
:101080001950BFF35F8FBFF35F8F044B00211960CE
:1010900082F310887047C04600ED00E0240100D0C4
:1010A0000048704700E400E010B5FFF7F9FF0023A7
:1010B00002E0034A04C00133072BFAD910BDC04631
:1010C000808080801F23181A7047000010B50388A5
:1010D000DA0A1C2A05D15B055B1502335B00C018D8
:1010E00010BD034B034AA0210348490003F02EFA28
:1010F000A0E601109C340210B8E6011010B5091AE0
:101100000B1F0A4A88180A4A904208D8C90706D411
:101110005B105B055B0D0748184380B210BD064BA2
:10112000064A99210648490003F010FAFC0700001E
:10113000FE0F000000E0FFFF00E7011090340210F6
:10114000B8E6011010B5091A04394A08090B08D18C
:101150004905490D064B0B430380064B134343805F
:1011600010BD054B054A9D210548490003F0EEF9E5
:1011700000F0FFFF00F8FFFF30E701106C340210B1
:10118000B8E6011001238340034A10681840431E4B
:101190009841C0B27047C04600E100E0002A05D087
:1011A000044BC0225200995019607047014A8023B5
:1011B000D150FAE700E100E010B50A001F23034018
:1011C000012199404009FFF7E9FF10BD0123834049
:1011D0000249802252008B507047C04600E100E077
:1011E000024B9B6810308000C058704700ED00E053
:1011F00010B5FFF7F5FF044BC31A002047229A42AF
:101200004041C0B210BDC046640E002010B5FFF7CB
:10121000E7FF002803D0034B984201D0012010BD06
:101220000020FCE7C101001070B505000E00EFF3CF
:10123000108472B60D4B1B68002BFBD0BFF35F8F81
:101240002800FFF7CDFF0A4B984201D0B04205D1EC
:10125000220031002800FFF70FFF70BD054B064A42
:1012600012210648FF3103F071F9C046240100D075
:10127000C101001040E70110C4340210B8E60110AB
:10128000F0B5DE4657464E464546E0B589B0814644
:1012900001911500EFF3108372B69A466E4B1B68EE
:1012A000002BFBD0BFF35F8F6C4B00269E57002EA8
:1012B00040DB7400A419A400694823189B46062249
:1012C0009A56664B1A70674B9A684B4610339B00D0
:1012D000D7583B1A472B3BD9634B9F4231D105AFBF
:1012E000624B3B80624973000293981980005C4C0A
:1012F00000190230FFF702FF78805E4BBB80FF23AE
:10130000BB71FD71019A0792029B9B199B00E31828
:1013100007CF07C301275B463B431F0052463900F6
:101320004846FFF7A9FE09B0F0BCBB46B246A94645
:10133000A046F0BD504B514AD0215148490003F01E
:1013400005F9504B4D4AA8214D48FF3103F0FEF8F6
:1013500001233A009A439046101A0C2101F0D2F969
:1013600000290FD143460024DA79AA4212D9062176
:10137000595600290DDB4A005218920038491C00CA
:101380008B18F1E7404B3D4ADC213D48490003F012
:10139000DDF81C00002C2DD005AB3C4A1A80813AA8
:1013A0005A800623E3569846002B16DA384804ABD9
:1013B000188142469A72DD72019B0793201D59469F
:1013C000FFF79CFEA080A671254B72009219920037
:1013D0009B1805AA13CA13C3A0E7201DFFF776FECA
:1013E00001007000801980001D4BC0180430FFF709
:1013F00085FEDCE705AF1D4B3B801D497300029362
:101400009B199B00164C1800A446604403900230C0
:10141000FFF774FE7880039A101D4146FFF76EFEB9
:10142000B8801C4B4246121B524153431B0DBB71EB
:10143000FD7101990791029B9B199B00A44663448F
:1014400007CF07C3114B42461380813B53800127CE
:101450005B463B431F0061E7240100D07913012064
:10146000640E002000ED00E0C101001000A1FFFFAC
:10147000AC0E002001BDFFFF78E70110AC34021074
:10148000B8E60110A0E70110C8E70110014800000C
:1014900001BD0000AAAA0000F0B5CE46474680B5BF
:1014A00083B080460C00EFF3108772B64F4B1B6879
:1014B000002BFBD0BFF35F8F4D4B9A68454610352C
:1014C000AB00D6584B4B9E4207D0A64200D18AE0D3
:1014D0000196494BF31A472B09D93A00310040468F
:1014E000FFF7CAFD03B0C0BCB946B046F0BD4046E8
:1014F000FFF748FE814600214046FFF75DFEBFF33F
:101500005F8FEFF30581002901D08D4211D10123B6
:10151000019D9D430020AB689C4211D00622AA5633
:10152000002A0CDB53009B189B00334A2800D51877
:10153000F1E7324B324A3348334903F007F82800C9
:101540009C4249D106242C57002C2BDB2A4B6200ED
:10155000121992009B189A68AA60DA79EA719B794D
:101560005BB2AB71002B0FDA2848A880224B6200D7
:10157000121992009B18264A1178997114704946E5
:101580004046FFF719FEA8E76000001980001A4BDB
:10159000C0180430FFF79AFD01002B1D1800FFF75B
:1015A000ADFDE2E7002912D100280ED0FF238371A0
:1015B000184B838016490B78AB710F4A164BAD1A46
:1015C0006D416B431B0D0B70D9E70A4EF2E71349CF
:1015D000281DFFF7B7FDD2E7114B094A9A210948A8
:1015E000890002F0B3FF034E77E7C046240100D024
:1015F00000ED00E0C1010010640E00204CE8011075
:101600007C340210B8E601102602000001BD000083
:101610007913012001BDFFFFAAAA0000B60E002029
:1016200080E8011070B504000D00FFF739FDA30834
:101630009B00C218116803232340DB00FF20984061
:101640008143280098400143116070BD70B50122AC
:1016500002432D4BD31A472B29D8EFF30583002BD8
:101660002BD0EFF3108172B68C4628490968002907
:10167000FBD0BFF35F8F2449254C05006D1A6D41E7
:101680006C43240D64B2234989689B00C958914278
:1016900019D00021052930D81B4B4A00521892005E
:1016A0009B189B795BB2A3421DD00131F2E71A4B24
:1016B0001A4A1B481B4902F049FF1B4B174A18489E
:1016C0001A4902F043FF134A92681949D150194B45
:1016D0001A7882711C70BFF35F8F0C4B00221A6066
:1016E0008CF3108870BD084B4A005518AD005D1989
:1016F000FF26AE71104AAA80E9E7104B074A084856
:101700000F4902F023FFC046640E0020240100D0E0
:10171000AAAA000000ED00E088E801105034021091
:10172000B8E60110A3020000B0E80110A602000014
:10173000C10100107913012001BDFFFFBCE80110B9
:10174000B702000010B5FFF7BDFC0100024B180006
:10175000FFF742FC10BDC0468513012000B583B0E1
:1017600001000648064B009305230022FFF70BFCFF
:10177000002801DB1F23181A03B000BD85130120C8
:10178000C4E8011070B504000E001500FFF746FC18
:101790000100200000F006F8A680E580BFF35F8F0F
:1017A00070BD0000024B9C46614489000160704797
:1017B0004000003410B50400FFF730FC01002000A9
:1017C000FFF7F0FFFF232371BFF35F8F10BD10B54C
:1017D0000400FFF723FC01002000FFF7E3FFFF23D5
:1017E000237100236371BFF35F8F10BD10B50D4CE3
:1017F00009E00D4B0D4A0E481A2102F0A7FE200009
:10180000FFF7D8FF08340B4B9C4209D22368002B0A
:10181000F5D0012BEDD12000FFF7D9FF0834F2E716
:1018200010BDC04604180020E0E801105835021031
:1018300000E901100C180020034B9C46614489000C
:101840000160BFF35F8F70474000003410B50400A3
:101850000120FFF7F1FB01002000FFF7EDFF10BDB5
:1018600030B5836A9C46D41A0B1D9B001B586546F5
:101870005B1B9C4204D3046A01238B40234202D1A8
:10188000043189000A5030BD00040843704740BF4E
:101890000020002170470000F0B5DE4657464E4656
:1018A0004546E0B583B0EFF3058303221A4000926A
:1018B000B84B9200D35898461B78009A934207D1B0
:1018C0000123009A93401A000193B34B1A6072E00F
:1018D000B24BB34AB348B92102F038FE5C692369C0
:1018E00020009847002821D030CC91E0AE4800F08D
:1018F000B5FB0019694196E0AC460023EC5E002C74
:101900000EDB634600229B5E5D00ED18ED00554442
:10191000AA68EB6806000F00B61A9F41002FEBDAA9
:101920005B461C804B46624613801CE05B460022EF
:101930009B5E424613811269EFF3108372B6116801
:101940000029FCD0BFF35F8F42460221525E594608
:101950000A804246494651801269BFF35F8F0021D9
:10196000116083F3108843469B881BB2002B76DA04
:10197000434608229A5E002A00DABEE043465969CF
:1019800053009B18DB00CB189C68DD6822002B00FD
:1019900000998548FFF764FF43469B79002B00D0F0
:1019A000C0E0814800F05AFB241A8D41002D00DD73
:1019B000B0E000D1EAE07C4B019A5A63434608222A
:1019C0009B5E9946002BCEDB43465A694B465B0033
:1019D0004B44DB0093469B445B469E68DF6872483D
:1019E00000F03CFB801BB9410029BCDB5B461C6955
:1019F000022C00D172E743460820185E5B465988E6
:101A000089B2FFF741FF5B465969A04704000D000A
:101A100023002B4300D189E7002D00DB66E730006F
:101A20003900001BA9415B469860D96000241C5F07
:101A3000002C98DB43465A69924663001B19DB0071
:101A400053449A68DB6805000E00AD1A9E41002ED3
:101A500089DB43461C8147460837BC464FE743466F
:101A60001969EFF3108372B60A68002AFCD0BFF33D
:101A70005F8F4246928812B29146012252424146FD
:101A80008A800A69BFF35F8F0021116083F3108899
:101A90001CE09B4600229A5E002A0EDB5B4600217A
:101AA000595E4B005B18DB0053449868D9682600E8
:101AB0002F00361A8F41002FEBDA4B4659460B8028
:101AC000634600215B5E994663461A804B46002BB5
:101AD00000DA4DE743465A6992464B465B004B4459
:101AE000DB009C46D44463469C68DD684646083665
:101AF000B346434608229A5ECEE72B4C200000F006
:101B0000ADFA80221206002312184B4100992000E2
:101B1000FFF7A6FE40BF03B0F0BCBB46B246A946E5
:101B2000A046F0BD00234246937108324346082187
:101B3000595E1BE0168043461B699C46EFF31083F9
:101B400072B6994667463F68002FFBD0BFF35F8FA0
:101B500047460223FF5E0780404641800169BFF38C
:101B60005F8F0020086089F3108831004B1C00D182
:101B700017E743465E694B005B18DB00F018F65E22
:101B800043881BB2002BD5DB0200EEE7002C00D10E
:101B900011E7BFE730D200203C70054094E9011006
:101BA00084350210C0E901100040054070B5040002
:101BB0000D0011000126AE4006622800FFF734FB3D
:101BC00001212800FFF7F8FA024B9C466444266086
:101BD00070BDC04638200000F8B504000F001600A4
:101BE0001D00C160FFF71AFA124B9C46604480004A
:101BF00020612670ABB26381D02212061278627027
:101C0000012252422281A2809B186380002306E0B9
:101C1000581E61695A00D218D20088520133AB4273
:101C2000F6D3054BB200D450044A31003800FFF718
:101C3000BDFFF8BD4000003430D2002099180010DC
:101C400010B5064B1B69002B01D0044810BD044B96
:101C5000044A0548722102F079FCC046C40E0020F7
:101C600000EA01106C350210C0E90110F8B504005B
:101C70000569EFF3108072B629680029FCD0BFF324
:101C80005F8F0221665E656971008919C9006D1850
:101C9000002E02DB0027E95F61802169BFF35F8FBF
:101CA00000270F6080F31088002E2CDB0699296135
:101CB00007996961AA60EB606B8801335B04590C7A
:101CC000002B00D1012169803000FFF7DDFD216983
:101CD000EFF3108372B60A68002AFCD0BFF35F8F5F
:101CE000A2882A80A6802269BFF35F8F002111603D
:101CF00083F31088E368217801228A4003498C46E7
:101D000063441A60F8BD01204042FBE73C2000001C
:101D100070B582B0060014001D0008AB1B78002BC4
:101D200007D100F0CBF922002B00121A8B41002BB7
:101D30000ADB079B0193069B009322002B003000D7
:101D4000FFF794FF02B070BD0020FBE7F0B5C64678
:101D500000B584B080460F0016001D000AAB1C7849
:101D6000FFF76EFF02940195009642463B00FFF795
:101D7000CFFF04B080BCB846F0BD000030B5040011
:101D80000A1443899A4230DA406953009B18DB00F9
:101D9000C31822699446EFF3108272B66046006859
:101DA0000028FBD0BFF35F8F588885B20904090C67
:101DB000884212D000202369BFF35F8F0021196091
:101DC00082F31088002811D0E368217801228A402C
:101DD00007498C4663441A6008E00649294389B2E2
:101DE00059800123A3710120E5E7002030BDC046E2
:101DF0003C2000000080FFFF10B50400FFF720FF2B
:101E00002100FFF7BBFF10BD40787047F0B583B0ED
:101E100006000F00EFF30583002B1AD1062464425D
:101E2000E517A4197D418D4202D803D1844201D91E
:101E30000024002500F042F922002B00121A8B41E9
:101E4000002B0BDC08D03000390000F049F903B05A
:101E5000F0BD0D48FFF74EF8002AF4D00B4A0023DE
:101E6000009320002900FFF771FF002801DAEAE75C
:101E700020BF074B5B6A9D42FAD80549896AA14297
:101E8000E1D29D42DFD1F3E724EA01108F18001060
:101E90000040054070B504000D0000F00FF922006D
:101EA0002B0012184B411000191E02DBFFF7AEFF8A
:101EB00070BD012040420149F8E7C046FFFFFF7FA7
:101EC00010B5FA2292000023002100F0EDFFFFF789
:101ED000E1FF10BDF0B585B003900291EFF30583EB
:101EE000002B13D00B00494A526A8A4209D3474952
:101EF000896A814208D29A4201D0012002E0002082
:101F000000E0002005B0F0BD0120FBE7FFF798FEE0
:101F1000C3681F000678039A1400029A150018007F
:101F200000F09CF802000B00A41A9D412200311D14
:101F30008900C959091A0020A84210DC0DD0029B63
:101F4000324A526A934232D83049896A03988142B0
:101F500059D293422BD00120D4E79142EFD92C4A99
:101F600000230093039D2800029C2100FFF7EEFE52
:101F7000002830DD02990D00244B5B6A994206D897
:101F8000224A926A039CA24202D2994200D120BF07
:101F9000FFF732FF1D4B5B6A9D4230D81B4A926AA5
:101FA000039882422DD29D4227D00120AAE720BF6C
:101FB000164A526A93420AD81449896A03988142A0
:101FC00007D2934201D001209CE700209AE700202D
:101FD00098E7012096E70D4B5B6A9C4209D80B49B4
:101FE000896AA94207D29C4201D001208AE70020D9
:101FF00088E7002086E7012084E7002082E70020B0
:1020000080E701207EE701207CE7C04600400540D4
:102010008F180010004870470040054010B5094B6C
:102020001B69002B00D010BDFFF7F4FF0400032153
:1020300000F00AF80348102303222100FFF7CCFD2B
:10204000F1E7C046C40E002010B5024A0248FEF770
:102050007FFF10BD74EA0110682000200200436A6F
:10206000906A1900536A9942FAD17047416A00E0B8
:10207000416A9942FCD300E0416A994202D1816AE7
:102080009142F9D3704770B5060014001D00FFF7A8
:10209000E5FF02000B001000190022002B001218AF
:1020A0004B41994202D804D1904202D901225242B6
:1020B000D3173000FFF7DAFF70BD000010B50248FB
:1020C000FFF7CCFF10BDC0460040054010B5020030
:1020D0000B000248FFF7D7FF10BDC0460040054087
:1020E00010B502000B000248FFF7C0FF10BDC0464C
:1020F00000400540F8B5CE46474680B505000E00C5
:102100009046994644002418A400284B9C466444F9
:102110006368089A934200D262602F1FFFB2012FBA
:102120002ED980221201C0239B01E3181A60204B94
:10213000AA00D158002907D0586900F0E3FA01300D
:1021400043001B18033BFDD243465B01226853400A
:10215000E022134080225201A2181360012F1AD9E5
:1021600080239B01E318802212011A60089B6360A0
:102170000F4BAD004A46EA50C0BCB946B046F8BD68
:10218000012ECED10322C0239B01E3181A60A3685D
:10219000DB07FCD5D8E72168714003230B401360AF
:1021A000A3680122B2401A42FAD0D9E70080004069
:1021B0007020002070B582B006000D0014001800D9
:1021C000069900F09FFA0300069A1102009122007E
:1021D00029003000FFF78EFF02B070BD10B582B04D
:1021E000802464000094FFF785FF02B010BD00005A
:1021F000014B8000C058704770200020F0B5C646E3
:1022000000B504000E0017001D00374800F07AFAF0
:102210008046364BFA18364B9A4239D801003800BE
:1022200000F070FA0200103A98235B009A4235D809
:102230006B1E062B38D8069B013B062B34D83F0972
:10224000474537D32D04069B1B031D432368002BF2
:1022500036DB284B9C4244D00C2201239340264A73
:102260001360264A1360264A1268190091430A1E19
:10227000F9D12660A060234BE31821321A6022684E
:10228000002AFCDAE56008221A6080BCB846F0BD7E
:102290001D4B1E4A1E48112102F058F91D4B1B4AC6
:1022A0001B48192102F052F91B4B184A18481C21EF
:1022B00002F04CF9194B154A1548232102F046F952
:1022C00022683F231340B342C3D1A3681B051B0DF3
:1022D0008342BED1E368EE22D2021340AB42B8D1B2
:1022E000D3E70D22B9E7C046001BB70080E84BD307
:1022F00080F8A93200C0024000E0004000F0004039
:1023000008C000400430000098EA0110A83502100F
:10231000E8EA011030EB01104CEB011098EB0110D2
:10232000024B1A68024B5A607047C0464034002086
:102330000080054010B5174B8022D2051A60164B5D
:10234000164A1A6000290AD0154BE022D2041A60FE
:10235000002809D1124B802212061A6010BD0D4BC5
:10236000E022D2041A60F3E743011B1A9B001818FD
:1023700000010C4B186080235B04984202D3094B88
:10238000094A1A60FFF7CCFF054B8022D2051A607C
:10239000E4E7C04600B0054008200140FCFF010012
:1023A00000A0054040340020FFFFFF0010B50300EF
:1023B0000C0010000B4A8021C9051160002B0DD0C4
:1023C00001221343084A0949D16109495940116260
:1023D000546293620021FFF7ADFF10BD024B002253
:1023E000DA61F7E700B0054000800540D3C007B0D0
:1023F0002D3FF84F80239B000B43014AD362704767
:102400000080054010B5010018231B881422108895
:10241000984710BD10B5010018231B88162210889C
:10242000984710BDF0B5C64600B507000E00002560
:102430000123984600E00135B5420AD2AC003C19B0
:102440002068FFF7DFFF20600028F4D100239846C2
:10245000F1E7404680BCB846F0BD000070B504000E
:102460000D000648FFF7CEFF0300002C03DB012020
:10247000A040290098470020FBE7C04655420000D5
:10248000074BAA2212011A608D225200DA60054B16
:10249000054A1A60024B5B68002BFBDA7047C046A6
:1024A000004002400060024000B0FA0010B5040095
:1024B00001E008CC9847024B9C42FAD310BDC046BD
:1024C000CCDC01107047000010B50248FFF7EEFFAA
:1024D00010BDC04690DC0110054B064A1A60064B41
:1024E000064A1A60064B1A68044B9343FAD17047A8
:1024F00000E00040BFCDFBFE00F00040FE7F3C004E
:1025000008C00040044BDB6C002B03D1034B80223E
:10251000D2021A607047C046000011504C20115082
:10252000044B054A1A60054B1B68DB43DB01FAD1FB
:102530007047C04600F00040FFFFFF0108C00040A8
:10254000034B40229A675A671A67DA667047C0469B
:1025500000F0014010B5FEF77FFD10BD10B50C4C2A
:102560000C4BE41AA4082200302C00D9302292002F
:102570000948084900F09EFE04E0084A064BA10005
:10258000CA5001342F2CF8D9034B054A936010BD73
:10259000C00100100001001000000020C101001067
:1025A00000ED00E070B50420FFF722FE064900F0C0
:1025B000A9F805000024002C00DD70BDE0B2290060
:1025C000FFF718FF0134F6E740420F0030B583B043
:1025D000274B00229A67FFF753FF264B01221A6010
:1025E000234B5B6C012BFBD1234B03221A60204B46
:1025F0009B6B012BFBD10133009304331F4A012154
:102600001F48FFF7FBFD052300931E4A01211E48CA
:10261000FFF7F4FD1D4B002202210420FFF7DEFD31
:102620001B4D2B00002201210520FFF7D7FD194C7F
:102630002300002200210720FFF7D0FD2300002205
:1026400000210820FFF7CAFD8023DB000093230050
:10265000002200210920FFF7ADFD2B000022002100
:102660000620FFF7BBFDFFF79DFF03B030BDC0465E
:10267000008000403CB0004030B00040002F68595E
:1026800000800240008C864700C00240001BB7005B
:1026900040597307006CDC0201480421014B1847C4
:1026A000E00E002025240010014B9B681847000015
:1026B000E00E0020124A936F9B0815D29066D166F7
:1026C000002905D0FFE7FFE7FFE7516F106F704764
:1026D00004B580210906C2175140002800D0C84324
:1026E0001BF086FA002104BDF0B5146E556E576FCD
:1026F000166FFFF7E3FF1466556657671667F0BD60
:10270000000000D0114A936F9B0813D210665166E7
:10271000002905D0FFE7FFE7FFE7516F106F704713
:1027200004B5002801D00020C0431BF061FA00214D
:1027300004BDC046F0B5146E556E576F166FFFF7A7
:10274000E5FF1466556657671667F0BD000000D0B8
:1027500094464A4A926F9208624601D228E0C046E7
:10276000F0B5464E346E756E776F366F00F020F818
:102770009446424A14665566576716676246F0BD2E
:1027800094463E4A926F9208624601D254E0C04697
:10279000F0B53A4E346E756E776F366F00F04CF8C8
:1027A0009446364A14665566576716676246F0BD0A
:1027B000002B24DB11D000293EDA00B5C94340428A
:1027C00000D1013100F038F8C943404200D1013155
:1027D000DB43524200D1013300BD002AEBD1002877
:1027E00001D1002905D00020C90FC90701D1C0437C
:1027F000410800B51BF0D4F90022002300BD00B54C
:1028000000290ADBDB43524200D1013300F014F807
:10281000C943404200D1013100BDC943404200D10B
:102820000131DB43524200D1013300F005F8DB43B4
:10283000524200D1013300BD002923D1002B18D111
:10284000002A0CD0BC460D4F38667A660021002362
:10285000FFE7FFE7FFE77A6F386F674670470028AA
:1028600001D00748010000B51BF09AF900220023AF
:1028700000BD02000B00002000217047000000D0C6
:10288000FFFFFFFF002B00D0BFE0130C28D1002A70
:10289000E7D080B4114F39667A66FFE7FFE730B4BE
:1028A000040C7B6F396F1B0423433B667A66FFE79A
:1028B000FFE7FFE7C04684B27B6F3D6F1B042343F5
:1028C0003B667A66FFE7FFE7C04600232C042D0C29
:1028D0007A6F386F00196941B0BC7047000000D0B2
:1028E000F0B594460025140E01D112020835140FDC
:1028F00001D112010435940F01D192000235D40F99
:1029000001D152000135D40B0134254F7C66254C92
:102910003C660E0C93B2FFE7FFE7FFE73C6F6643B0
:10292000360C7703BE467343DF0B5B04C01AB94114
:10293000130C7343DB18C91ACE086643360CB64431
:1029400093B273431F0F1B01C01AB941130C734399
:102950001F0B1B05C01AB941860D8F023E4366430B
:10296000360C092D24DB520A7243801A7703460A7B
:102970006643360C16235B1BDE40DF40BF196446FE
:102980006643821B7046043506330100D940A840D7
:10299000C01900D30131A24206D20023F0BD0000CD
:1029A000000000D0FFFFFFFF121B0130F3D3F1E75F
:1029B00009277F1BFE406446A2B27243801A00D2F0
:1029C0000139220C7243130C1204821A99410B0034
:1029D0007046043513370100F940A840801900D330
:1029E0000131002B02D1A2420AD2F0BD013000D346
:1029F0000131121BFAD2013BF8D1A24200D2F0BD44
:102A0000013000D30131121BF7E7F0B51C0C00D0E8
:102A100080E00CB400251C0A04D11B02160E3343BF
:102A2000120208351C0B04D11B01160F334312018F
:102A300004359C0B04D19B00960F33439200023562
:102A4000DC0B02D192185B4101351C0097186441E0
:102A50000134464F7C66464C3C660E0CFFE7FFE7B0
:102A6000FFE7C0463C6F6643360C7703BE4697B21D
:102A70007743C01B00D20139C01B00D201399FB27D
:102A80007743C91BC91B170C77437E04FF0B801BC0
:102A9000B941CE086643360C0C2D33DBB644120B1D
:102AA0001F053A431B0B97B27743C01B00D2013975
:102AB0009FB27743C91B170C77433E043F0C801B22
:102AC000B941860D8F023E43664329277F1BFE4096
:102AD0000C3D7746AF40BF1930BCA2B2ABB27243D7
:102AE0007343801A9941220C7243130C1204801A0A
:102AF000994102000B000137001BA941F9D2781E51
:102B00000021F0BD0C277F1BFE4077467F0BAF40B6
:102B1000FF19E0E700245D1C07D0144F7D6639667D
:102B2000FFE7FFE7FFE7FFE73C6F95B29EB2654323
:102B30006643401BB141150C1E0C654366433604C9
:102B40002F0C3E432D04401BB141994204D2020098
:102B50000B0020000021F0BD01D19042F7D3801A74
:102B6000994101349942F2D3F6E70000000000D009
:102B7000FFFFFFFF48404140484018B4134B5B68DB
:102B8000019308BD18B4114B1B68019308BD94460E
:102B90000F4A926F920805D2624618B40B4BDB685D
:102BA000019308BD0A4AF0B5146E556E576F166F43
:102BB0006246FFF7F2FF064A1466556657671667C6
:102BC000F0BD18B4014B9B68019308BDF8100120BB
:102BD000000000D0FFB550404240504059404B40AB
:102BE000594000E0FFB5154F4C00640D03D0BC42C6
:102BF00004D10C0314D80020090D09055C00640DF4
:102C000003D0BC4204D11C030AD800221B0D1B05B3
:102C100001264B4009D44B4003D58B4200D1824260
:102C2000FFBD9942FCD19042FFBD0B43DB1803432B
:102C30001343F5D0C9434918FFBD0000FF0700004A
:102C400000B5FFF7CFFF01D0002000BD012000BD7F
:102C500000B5FFF7C7FF804100BDC04600B5FFF7D4
:102C6000C1FF01D9002000BD012000BD00B5FFF764
:102C7000B1FF01D9002000BD012000BD00B5FFF764
:102C8000A9FF804100BD012040054A00121804D868
:102C90005A00121801D80020704701207047000028
:102CA0000021002805D17047C1174840401AFAD0CA
:102CB000C90713B5064B1B6898470CBC441CA240BF
:102CC0001005120B0349091B09051943114310BDD7
:102CD000FC1101201F04000010B54C00620D802380
:102CE000D218DB00D21A5B057E2A10DD9E3A13DA79
:102CF000CC170903490819435242D14064000134FA
:102D00001532202A05DAD0400843604310BD002068
:102D100010BD0846604310BDC80FC018013810BD73
:102D200018B4024B5B6A019308BD0000F810012043
:102D300018B4024BDB6D019308BD0000F8100120B0
:102D4000C94211D300B549004908002200F014F827
:102D5000002904D4002240428A41114600BD80214E
:102D60000906002000BD000018B4024BDB6E019381
:102D700008BD0000F810012018B4024B9B6F0193AE
:102D800008BD0000F810012018B4024BDB6F01935E
:102D900008BD0000F810012010B50148FEF7AAF8A0
:102DA000B4EB011070B513231C78012C12D0012C48
:102DB00012DC214B214A93642148FFF723FB214B6E
:102DC000186070BD20491D4A9800815001331F2BA7
:102DD000F8D9ECE70023FAE71C48FFF71BFB0500D6
:102DE0001B48FFF717FB023803789B007F2B09DD98
:102DF00012488022290000F05DFA022C08D0022C33
:102E0000DADCD6E7134B144A1448342101F09EFB58
:102E1000134B1A88B5231B029A4209D1114B1A8809
:102E2000114B9A4204D1114B1A88114B9A42E6D0A9
:102E30000020FEF75FF8C046752E0010F810012044
:102E40004C330000FC110120992D00105344000068
:102E500053460000CCEB0110B435021010EC011009
:102E600054380000D8380000494600009C38000063
:102E70005946000007B56046002800D100BE018811
:102E80000A0A0230DF2AFAD1C9B2820804D30288C2
:102E900040880004104300E00068024A505003904C
:102EA00007BD0000F810012051434343C9188C4668
:102EB000110C83B24B4310B4040C614392B280B244
:102EC000504362431C041B0C001910BC59411304ED
:102ED000120CC01851416144704700004840414005
:102EE00048400E4B5B6818470C4B1B6818470C4A50
:102EF000936F9B0802D2094BDB681847F0B5146E3C
:102F0000556E576F166FFFF7F6FF054A1466556644
:102F100057671667F0BD014B9B68184700120120E8
:102F2000000000D007B548404140484001E0C0469D
:102F300007B54200120E03D0FF2A03D1420218D86F
:102F4000C00DC0054A00120E03D0FF2A03D14A0269
:102F50000FD8C90DC9050122414005D4414001D512
:102F6000814207BD884207BD0143491801D0C043D3
:102F7000001807BD00B5FFF7DBFF804100BDC0466C
:102F800000B5FFF7CFFF804100BD491A002807D1E7
:102F900008467047C10FC90700D54042002817D026
:102FA000F44603B40B4B1B68984706BC81409E381F
:102FB0004042803107D20B0607D04900490AC005BC
:102FC0001043084360470130F8E7490A8902F5E7F2
:102FD00070470000FC110120014B1B6B18470000DB
:102FE00000120120034A10470029FBD0024B5B6E00
:102FF000184700008B2F001000120120014BDB6FDF
:1030000018470000001201204100090E862902DA4B
:10301000044BDB6B1847044900B500F00FF902BC04
:103020008E46F5E700120120DB0FC9404100090E72
:10303000862902DA044B1B6C1847044900B500F0DE
:10304000FDF802BC8E46F5E700120120DB0FC940F7
:1030500010B50148FDF74EFF18DE011070B51323BF
:103060001C781948FFF7D6F90500012C12D0012C65
:103070000ADD2B00023B1B789B007F2B1EDD1348D3
:103080008022290000F016F91148FFF7BBF9114B17
:10309000186070BD0D485422290000F00BF9002380
:1030A00000E001331F2BE2D8084A99008A58002A11
:1030B000F7D10949054A98008150F2E7074B084AC1
:1030C0000848432101F042FA534600000012012053
:1030D0004C330000FC1101205130001068EC01104D
:1030E000C83502109CEC0110F0B5C64600B50400CE
:1030F0000E00151E98461CDDC91101204042FFF745
:1031000001FB070000210EE00C2263127B431D200F
:10311000801A034101335B10944018007043241A55
:103120009140C918AD1A002D05DD0C2DECDC2A00EC
:10313000EBE70027E6E7B44201DBA41B0131B44210
:1031400001DBA41B0131002C07DB4346002B00D020
:103150001960200080BCB846F0BD0139A419F4D52F
:10316000A4190139F1E7F0B5C64600B582B01500E3
:10317000C30F9846C30DFF2423404202520A802603
:10318000360432439446CA0F1700CA0D1440490250
:10319000490A0E43002D01D000222A60FF2B42D0A5
:1031A000002C43D0002B47D0FF2C41D0621E9A4206
:1031B0003EDC24D04246002A02D062465242944667
:1031C0001A1B01AB31006046FFF78EFF4300B3428C
:1031D00003DC06D1019BDB0703D5801B019B013378
:1031E0000193002F02D0019B5B420193002D01D07F
:1031F000019B2B609621091BFFF7EEFE18E0B445FA
:1032000016DD4346002B06D170006346181A0123D1
:1032100001931400E5E770006346C01A01235B4286
:1032200001931400DDE7FF20C00501E0FF20C00589
:1032300002B080BCB846F0BD0020F9E710B500220E
:10324000FFF791FF10BD000010B5002804D0401812
:10325000034B984200D810BD0248FDF74BFEC04614
:1032600000000420F4EC011070B5050014F04CFDD2
:1032700004002900FFF7E8FF200070BD10B50C0026
:1032800015F018F821000400FFF7DEFF200010BD44
:1032900010B514F043FD10BD01480421014B18473F
:1032A000F00E002025240010014B1B681847000079
:1032B000F00E0020014B5B6818470000F00E002064
:1032C0009A4200D288547047704710B5002802D047
:1032D0000B684968984710BD0100002007E0830093
:1032E0001B185B00501C08601078C01830380A6842
:1032F0001378303BDBB2092BF1D97047F0B5D646D5
:103300004F464646C0B505000E00100091461F000E
:10331000099C0B9B0222110019408A461A4234D1A3
:10332000DB0716D50200B84637002E001FE0551CFB
:10333000330041462020B84701342A000A9B9C42B2
:10334000F5D33D0037004646099CB84637002E00AD
:103350000DE00200B0463E002F000994EEE7013C6C
:10336000551C089B185D43463900B0472A00002CC5
:10337000F5D135003E0047465346002B16D11000CC
:10338000E0BCBA46B146A846F0BD0200B8463700D8
:103390002E00ECE7541C330029002020B8472200FF
:1033A0004B46D31A0A998B42F4D3E8E73B002F002F
:1033B00035001E00F4E7F0B5CE46474680B585B02F
:1033C00006000F00904699460C9A0D9B0EA90978AD
:1033D0008C46109D119C129988071CD4002C0CD08F
:1033E000C8070AD56046002802D10C30084204D034
:1033F000013C02E03020D0540133AB4201D21F2BFC
:10340000F8D9C80707D5A34205D21F2B03D830200F
:10341000D0540133F5E7C80612D5480505D4002B72
:1034200003D0AB4223D0A34221D00F98102831D033
:103430000F98022838D01F2B0AD83020D0540133DF
:103440001F2B05D86046002834D02D20D0540133DE
:1034500003910294019300924B464246390030009A
:10346000FFF74CFF05B0C0BCB946B046F0BD581ED2
:10347000012B17D00F9D102D0BD003000F98102893
:10348000D6D18806D4D51F2BD2D85820D05401339A
:10349000D1E7023B8806F1D41F2BEFD87820D05417
:1034A0000133C8E70300C0E71F2BD1D86030D054E8
:1034B0000133C0E7480703D52B20D0540133C7E7B9
:1034C0000807C5D52020D0540133C1E7F0B5DE464A
:1034D00057464E464546E0B593B0804689469246EB
:1034E0009B461CAB10CB1B7809931E9D002C03D16F
:1034F0001023219A9A4321928023DB00219E1E40B3
:10350000219A1A4218D0002C22D0002614E0219AC9
:1035100092061BD54121C918C9B20A39C9B2771C14
:103520000AAB995529002000FFF7ECF8AC4210D304
:103530001F2F0ED83E00040029002000FFF7E2F8FC
:10354000CBB2092BE3D83033D9B2E8E76121E2E707
:103550002700219B0693209B05931F9B04930395B3
:10356000099B029301970AAB00935B46524649467A
:103570004046FFF720FF13B0F0BCBB46B246A94659
:10358000A046F0BDF0B5DE4657464E464546E0B58E
:1035900095B08346089109920A931E9B99461F9FF6
:1035A00020AB1B780B93229B9846239C4B463B43B6
:1035B00003D11033269A9A4326928023DB00269D5E
:1035C0001D40269A1A4208D04B463B4339D000256D
:1035D0004E4623002C001D001FE04E4623002C0009
:1035E0001D001AE0269A920623D54122D218D2B2A3
:1035F0000A3AD2B2631C9A460CAB1A5542462B00CB
:1036000030003900FFF7BCF8BD421CD813D0534638
:103610001F2B14D8544606000F0042462B003000E2
:103620003900FFF7ADF8D3B2092BDBD83033DAB26B
:10363000E0E76122DAE7B045E9D9564604E05646AC
:1036400002E0002600E05646269B0693259B059344
:10365000249B0493434603930B9B029301960CAB6C
:1036600000930A9B099A08995846FFF7A4FE15B0E3
:10367000F0BCBB46B246A946A046F0BDF0B5DE465A
:1036800057464E464546E0B595B004008A469346F7
:1036900099461E9E1F9F32003B0030003900FFF705
:1036A000F2FA002800D0FBE001225242D64B300053
:1036B0003900FFF7E3FA002800D0F1E0012252427E
:1036C000D24B30003900FFF7C3FA002800D0E7E002
:1036D0000022002330003900FFF7BAFA002800D09A
:1036E000F3E0069607978023DB00229A1A40119296
:1036F000229A1A4201D106232093069807990200C4
:103700000B000A920B9303000A00024300D1E8E089
:10371000080D4005400DBE4DAC46604405000798BD
:103720000203120B00200021089009910893B94B65
:10373000134309932800FFF7B7FAB74AB74BFFF7CF
:1037400040FAB74AB74BFFF71DFA0A900B910022D7
:10375000B54B08980999FFF710FAB44AB44BFFF734
:1037600030FA02000B000A980B99FFF70BFAFFF7EB
:10377000B3FA80460890FFF797FAAE4AAE4B0A902C
:103780000B91FFF71EFA0022AC4BFFF7FBF9FFF796
:10379000A3FA0500AA4AAB4B0A980B99FFF711FA56
:1037A0000A900B912800FFF77FFAA74AA74BFFF773
:1037B00008FA02000B000A980B99FFF7DEF90200E5
:1037C0000B000A900B91FFF7FCF90E900F912B0064
:1037D0009F4DAC466344002100220C910D921B05C5
:1037E0000D9300230C930A980B9902000B00FFF72E
:1037F000C9F9129013910A9A0B9B00208021C905E8
:10380000FFF7BBF90A900B910022924B0E980F998B
:10381000FFF7BDF90022904BFFF7B4F902000B004F
:103820000E980F99FFF7B3F900228C4BFFF7AAF916
:1038300002000B000E980F99FFF7A9F902000B0088
:103840000A980B99FFF79EF902000B001298139942
:10385000FFF79DF900226F4BFFF794F90C9A0D9B2F
:10386000FFF7AFF902000B000A920B93069A079B31
:103870000C900D91FFF702FA00280AD04346013B55
:1038800008930022744B0C980D99FFF780F90A9069
:103890000B91089B6333C62B49D804231D0024E0F9
:1038A000229B0493219B0393209B029300960197F4
:1038B0004B465A465146200000F004F915B0F0BCC2
:1038C000BB46B246A946A046F0BD002100220691A3
:1038D0000792069680231B069C46BC4463460793CA
:1038E00001E70023089304331D00229B1B052BD501
:1038F0000A9A0B9B1900114311D0594A594B06984B
:103900000799FFF7B3F9002800D1B1E00022564B28
:1039100006980799FFF79CF9002800D1A8E0209AA3
:10392000089B9A4206DDD31A013B209304E005234D
:103930001D00DAE7002320938023DB00229A1A433C
:10394000229200231D000893219A954200D39BE008
:10395000531B98460223229A1A400C92229A134231
:1039600003D0002D01D000239846089B002B07D0E0
:103970000A9A0B9B06980799FFF709F90690079199
:103980000022002330003900FFF762F9002800D040
:103990007DE0364B229A1340049343460393209BC9
:1039A0000293069A079B009201934B465A46514652
:1039B000200000F087F8002D00D17FE7229B9B06B6
:1039C00071D54527461C4B46020051463800A0479A
:1039D0000898C317C2185A4005230593013D049562
:1039E000002303930A330293C30F019300924B46C3
:1039F000320051462000FFF769FD0C9B002B00D1DF
:103A00005CE70200219F56E0FFFFEF7FFFFFEFFF23
:103A100001FCFFFF0000F03FFB799F501344D33FB0
:103A2000B3C8608B288AC63F0000F83F61436F63CC
:103A3000A787D23F71A379094F930A400000E03F66
:103A40001655B5BBB16B0240EF39FAFE422EE63F88
:103A5000FF03000000002C4000002440000018403C
:103A60002D431CEBE2361A3F80842E41FFF7FFFF07
:103A7000209B002B00D167E7119B002B00D163E74F
:103A8000209B013B20935FE70023984662E7069E58
:103A9000079F3200390080200006844661440B00F5
:103AA0000692079375E765278CE7561C4B465146EF
:103AB0002020A04732005B46D31ABB42F5D310004A
:103AC000FCE6C046F0B5DE4657464E464546E0B5F4
:103AD00095B081468A4693460A93209F1E9A1F9B63
:103AE00010001900FFF7CFF8002831D1012252420F
:103AF000BA4B1E981F99FFF7ABF8002837D1012267
:103B00005242B74B1E981F99FFF7B8F800283DD1D5
:103B10000022B44B1E981F99FFF7B0F800284AD135
:103B20000022B14B1E981F99FFF792F8002842D14E
:103B3000002200231E981F99FFF78AF800284AD117
:103B400000230B93229B5B0500D4AFE0002452E0DE
:103B5000229B0393219B029303230193A34B009386
:103B60000A9B5A4651464846FFF7C8FB1FE1229B75
:103B70000393219B0293042301939D4B00930A9B83
:103B80005A4651464846FFF7B9FB10E1229B5B07B6
:103B90000ED5984B0422229903912199029101920A
:103BA00000930A9B5A4651464846FFF7A7FBFEE0A2
:103BB000914B0322EFE7229B0493219B03930297EF
:103BC0001E9B1F9C009301940A9B5A4651464846EF
:103BD000FFF754FDEBE01E9A1F9B00200021FEF72B
:103BE000CCFF1E901F9101230B93ABE70CAB30224F
:103BF0001A55013F01341F2C01D8092FF6D81E9801
:103C00001F99FFF769F80500FFF74EF802000B0057
:103C10001E981F99FEF7B1FF784BFA009B180CCB4A
:103C200008920993FEF7CDFF06900791FFF778F809
:103C30000600FFF735F802000B0006980799FEF71B
:103C40009CFF0690079100226D4BFFF717F80028A4
:103C50002ED001363000FFF723F802000B00089841
:103C60000999FEF7FBFF002801D001350026002F3F
:103C70002CD12800FFF718F802000B001E981F999E
:103C8000FEF77BFF06000F0000225D4BFEF7E0FF12
:103C9000002846D100225A4B30003900FEF7EEFFD3
:103CA00000283ED1EB073CD501353AE006274DE729
:103CB0000022534B06980799FEF7CAFF0028D6D179
:103CC000002E01D0F307D2D50136D0E7A8461F2C2D
:103CD00011D8013F0A213000FEF714FD651C303178
:103CE0000CAB19550A213000FEF70CFD092E0ED938
:103CF00006002C00EBE745461F2C0CD87B1E002F3E
:103D000009D00CAA302111551F000134F4E72B0013
:103D100045461C00F0E71F2C03D80CAB2E221A5589
:103D200001341F2C10D80A212800FEF7C3FC661CA2
:103D300030310CAB19550A212800FEF7BBFC051EDB
:103D400001D03400EDE73400229B9B0719D4229B5D
:103D5000DB0716D5219B002B0ED00B9B002B03D12C
:103D60000C33229A134207D0219B013B219303E09D
:103D70000CAB30221A550134219B9C4201D21F2CDE
:103D8000F6D91F2C06D80B9B002B17D00CAB2D227D
:103D90001A550134229B0393219B029301940CAB8F
:103DA00000930A9B5A4651464846FFF7A7FA15B0BA
:103DB000F0BCBB46B246A946A046F0BD229B5B07BD
:103DC00004D50CAB2B221A550134E3E7229B1B07C9
:103DD000E0D50CAB20221A550134DBE7FFFFEFFFE3
:103DE000FFFFEF7F65CDCD4165CDCDC158ED011011
:103DF0005CED01104CED011054ED01104036021045
:103E00000000E03FF0B5DE4657464E464546E0B579
:103E100093B083468A4690461193002900D11AE355
:103E200000255E46119B1878002800D116E325284E
:103E300009D06C1C43462A005146B047119B013300
:103E400011932500EEE701331193002712E0202A99
:103E500025D0232A05D110221743013311930124C1
:103E600006E0002404E002221743013311930124E9
:103E7000002C1CD0119B1A782B2A0AD0E7D92D2AA6
:103E8000F1D0302A11D12F3A174301331193012475
:103E9000EEE704221743013311930124E8E70822D7
:103EA0001743013311930124E2E70024E0E7119B5B
:103EB0001A781300303BDBB2092B15D92A2A18D007
:103EC0000B94119B1A782E2A23D0119B1A786C2AF6
:103ED00047D03CD9742A62D07A2A65D18022520018
:103EE0001743013311935FE011A8FFF7F5F90B9029
:103EF000E7E71C9B1A1D1C921B68002B04DB0B932D
:103F0000119B01331193DCE7022217435B420B93B1
:103F1000F6E78022D20017435A1C11925A781300F8
:103F2000303BDBB2092B0BD92A2ACED11C9B1A1DA0
:103F30001C921C68002C08DB119B01331193C4E711
:103F400011A8FFF7C9F90400BFE70024F4E7682AC5
:103F500017D06A2A28D18022920017430133119387
:103F600022E0802252003A43591C119159786C2961
:103F700001D0170018E0C0229200174302331193BA
:103F800012E080223A43591C11915978682901D0D6
:103F9000170009E0C02217430233119304E0802286
:103FA0005200174301331193119B1878652840D0B4
:103FB00077D8462800D18BE01BD9632831D1022362
:103FC0001A003A4091463B4200D1B0E101241C9BCB
:103FD0001A1D1C926F1C187843462A005146B047A0
:103FE0004B46002B00D0A6E1119B013311933D00FD
:103FF00018E7252809D16C1C43462A005146B047D2
:10400000119B0133119325000CE7452811D06C1C3E
:1040100043462A005146B047119B013311932500B6
:1040200000E763282BD858282BD0622829D04728AE
:10403000EDD1672801D0472802D180231B011F43FF
:10404000452801D0472801D120231F431C9B07335B
:10405000072293431A0008321C9204970B9A03928A
:1040600002940CCB0092019343462A005146300043
:10407000FFF704FB0500119B01331193D2E664287E
:10408000C5D178284DD0582800D17CE06F2800D1C8
:104090007CE0622800D17CE010239F43063B9C46D5
:1040A00041E0702800D1BCE10DD9732831D11C9BAF
:1040B0001A1D1C921B689B46002C00D06EE1012249
:1040C00052425B464AE16728B3D01DD866289ED18C
:1040D000462800D11CE11C9B0733072293431A009A
:1040E00008321C9204970B9A039202940CCB009214
:1040F000019343462A0051463000FFF7E3FC0500D8
:10410000119B013311938DE66928BAD06F28B8D07E
:104110007DE7732800D27AE77528B2D07828B0D02E
:1041200075E710239C46582836D0692803D06428A8
:1041300001D00C2297437A0501D5012297436928C3
:104140002DD064282BD0BA0500D5A3E0FA0500D500
:10415000BBE07A0600D4CDE01C9A111D1C911168B9
:10416000FF220A4005970B9B049303946346029336
:1041700000230193009243462A0051463000FFF786
:10418000A5F905002AE010239C46CCE708239C46AD
:10419000C9E702239C46C6E720221743C5E7BA05B4
:1041A00020D4FA0551D47A0667D51C9A111D1C91AA
:1041B0001168FF220A40D0171118414005970B9B48
:1041C0000493039463460293D20F019200914346F5
:1041D0002A0051463000FFF779F90500119B0133A1
:1041E00011931FE61C9A073207218A4311000831F8
:1041F0001C91116853689946DB170C930D930C9A28
:104200000D9B100048400E900D9B49464B400F936C
:104210000E980F990C9A0D9B801A99410E900F9150
:1042200008970B9B0793069463460493002305931A
:104230004B46DA0F02920090019143462A00514604
:104240003000FFF79FF90500C8E71C9A111D1C916B
:104250001268D0171118414005970B9B04930394E3
:1042600063460293D20F0192009143462A005146C1
:104270003000FFF72BF90500B0E73A0605D51C9A88
:10428000111D1C910023D25E95E71C9A111D1C91F3
:10429000126890E71C9A073207218A4311000831FF
:1042A0001C9108970B9B0793069463460493002385
:1042B000059302930CCA0092019343462A0051468B
:1042C0003000FFF75FF9050088E71C9A111D1C916B
:1042D00005970B9B04930394634602930023019379
:1042E0001368009343462A0051463000FFF7EEF86A
:1042F000050073E73A0606D51C9A111D1C91126839
:104300001204120C2EE71C9A111D1C91126829E749
:1043100020231F43DFE6571C434651462020B04769
:1043200023003A005C1C9D42F5D815004FE601239E
:104330002A000B9DF6E73A00B1460B9E06E0571C9B
:10434000434651462020C8472C003A00651CA6422F
:10435000F5D817004E4647E601330A0019780029C0
:1043600002D0511E002AF7D15A469B1A8022D20051
:10437000390011408946174202D0A34200D92300D8
:1043800002221100394010913A4209D02A0025003A
:104390005F469B4633004E46994621E0220090E658
:1043A0002A005546A24606E0541C43462900202018
:1043B000B0473B0022005F1C0B999942F4D8544649
:1043C000AA463B0025005F469B4633004E46994671
:1043D00006E01D000137541C43465146C8472200E1
:1043E0003878002804D0002EF4D06B1E002DF0D1B8
:1043F00015005B464E46109A002A03D1119B0133EB
:1044000011930FE52A000B9F06E0551C43465146C9
:104410002020B04723002A005C1C9F42F5D81500DD
:10442000ECE721233B431C9A111D1C911268059354
:10443000082304930394083302930023019300920A
:1044400043462A0051463000FFF740F80500119B13
:1044500001331193E6E40B4B9B46E1E4B34645453B
:104460000DD343465A1E434651460020D8472800E4
:1044700013B0F0BCBB46B246A946A046F0BD2A0028
:10448000F1E7C046C93200100EB400B584B0010097
:1044900005AA08CA03920120844605480092624694
:1044A0005242FFF7AFFC04B008BC03B01847C04647
:1044B000C13200100CB400B585B084460A0006A9CC
:1044C00008C90391044800916146FFF79BFC05B0C1
:1044D00008BC02B01847C046C132001000B585B014
:1044E0008C4602A902906046486001208446044838
:1044F0000093130062465242FFF784FC05B000BDF2
:10450000CB32001000BEFDE77047000003000A4AEE
:104510001268002A08D0084A1068C318074A9A424D
:1045200006D3054A13607047034A05491160F2E754
:1045300001204042F7E7C046083000200000042078
:104540008813012010B5FFF7DDFF000010B582B021
:1045500084460C001900002A0AD0074B0748019234
:1045600000932300624600F0C1F90120FFF7CAFF63
:10457000034B1A00F2E7C04664ED011074ED011020
:1045800018DE011010B5EFF30583002B00D000BE3C
:10459000FDF79AFF034C01E008CC9847024B9C4280
:1045A000FAD310BDCCDC0110D0DC011010B5030033
:1045B000080011001B68984710BD0000F8B50700FF
:1045C0000D001600437D002B02D0002400200CE0DB
:1045D00003681100280098472BE03B7D0FE03B6803
:1045E000144802219847601C0134B44213DA002CAD
:1045F000F3DD631EEB5C0D3B5A425341DBB22A5D97
:104600000A2AF1D1002BEFD1A042E8DA3B68211A47
:1046100028189847E3E7B04203DA3B68311A2818B4
:104620009847002E05DD013EAB5D0D3B5A425341DC
:104630003B75F8BDAC36021070B505000368002B61
:1046400016D00C4B1C6805E0290004C92000FFF7B8
:10465000B5FF2469002C09D02368002BF9D0064B44
:104660001B68002BF0D0A342F3D1EDE700232B60B1
:1046700070BDC0465C2F0020682F002010B50B686D
:104680005A1C0A60CB181871802A00D010BD08008F
:10469000FFF7D2FFFAE7000010B5FDF70FFD074A5C
:1046A000002312184B41002B03DB054819F0B0FA28
:1046B00010BD01225242034BF7E7C04640420F00B3
:1046C00004180020FFFFFF7F10B5024819F0C0FA60
:1046D00010BDC04604180020F0B5CE46474680B550
:1046E00083B080460D0016001C00FFF7D5FF814601
:1046F0006B1C05D0002C08D0184F194B1C6807E024
:10470000404614F0EBFB0500F4E7164FF5E724698B
:10471000002C16D02368002BF9D0134B1B68002BFC
:1047200001D0A342F3D12A0041462000B847002E11
:10473000EDD06B46D91D0A230B7001222000B8472B
:10474000E5E74B46002B05D1280003B0C0BCB946B5
:10475000B046F0BDFFF7B8FFF6E7C046BD45001014
:104760005C2F0020AD450010682F0020F0B583B00D
:1047700006000D0001921F00154B1C6808E0A3689D
:10478000002B04D029003000984700281EDC246943
:10479000002C06D00F4B1B68002BF0D0A342F6D1A3
:1047A000EDE70D4B5B6A9F4209D80B49896A019876
:1047B000814209D29F4202D00220404206E00120FD
:1047C0000021FDF783FCD7E70220404203B0F0BD93
:1047D0005C2F0020682F0020004005400A4A136823
:1047E00002E01A0010321B69002B09D013688342C3
:1047F000F7D1002907D1036913600023036102E0A8
:10480000002900D0106070475C2F002010B5064BC7
:104810001C6800E02469002C04D06368002BF9D0E8
:104820009847F7E710BDC0465C2F002010B500F098
:1048300069F910BD30B583B0040000231D00FDF7F9
:104840003DFC22002B0012184B41002B0ADB0121FA
:1048500001A8FFF78BFF002802DB07D001AB187817
:1048600003B030BD01225242044BF0E7044B054A2D
:10487000852105484900FFF769FEC046FFFFFF7F1D
:10488000A4ED011090360210A8ED011070B50500DE
:1048900014F024FB04000123012201002800FFF78B
:1048A0001BFFFFF7B3FF200070BD0000F0B5A3B001
:1048B00007000E00FFF7F0FE050001AC0023019396
:1048C000094833003A002100FFF708FE06002000E7
:1048D000FFF7B2FEFFF79AFF002D02D1300023B0A0
:1048E000F0BDFFF7F1FEF9E77D4600100FB400B50B
:1048F00083B004A901C90191FFF7D8FF03B008BC38
:1049000004B01847024B1860024B19607047C0464C
:104910005C2000206020002010B5FDF7CFFB0E4A80
:10492000002312184B41002B12DB0C4819F070F9D0
:1049300000280CD001200021404201F0B5FA0020EF
:1049400001F064FD0028F5D1044819F081F910BD8B
:1049500001225242024BE8E740420F0000130120BF
:10496000FFFFFF7F10B5024B1878FCF72FFC10BD3E
:104970007B13012070B51A4B1B68002B24D0EFF37A
:10498000108272B6100019680029FCD0BFF35F8F47
:1049900013494A60134B00221A700B68BFF35F8FF4
:1049A0001A6080F310880022002314001D000E4BB3
:1049B0001878FCF7E7FB00280CD100220023140034
:1049C0001D002000290070BDFA229200002314006F
:1049D0001D00ECE7044B1878FCF7F8FBF1E7C04644
:1049E00028D200207D1301207B130120F0B585B073
:1049F000070015001E000CAB1C78FDF75FFB2A00BA
:104A0000330012184B41002B09DB02940B990191E2
:104A10000A9900913800FDF77BF905B0F0BD01223D
:104A20005242014BF1E7C046FFFFFF7FF0B5C6469B
:104A300000B584B080460F0016001D000AAB1C783C
:104A4000FDF7FEF802940195009642463B00FFF701
:104A5000CDFF04B080BCB846F0BD000010B582B0F8
:104A60002248002119F084F800281ED1204B1B6831
:104A7000002B18D0EFF3108172B608001A68002AD4
:104A8000FCD0BFF35F8F1A4A51601A490B78DBB232
:104A900001240C701268BFF35F8F0021116080F356
:104AA0001088002B17D002B010BD01200021404219
:104AB00001F0FAF9002001F081FC04000B4819F024
:104AC000C7F8002CEFD00C4B1B68002BEBD00B4A27
:104AD00010689847E7E70A4A013300930023FA2059
:104AE00080000021FFF7A2FFDDE7C0460013012090
:104AF00028D200207D1301205C20002060200020AF
:104B00007549001010B582B0D0231B061C68FDF754
:104B100097F8FDF779F9A04230D1274B1B78002197
:104B2000002001F073FF254B1B68002B2CD00120C7
:104B3000FCF714FE224C20702249FF231840FCF79A
:104B400073FB20780121FCF737FB0520FCF750FBB5
:104B5000041E1DD00120FCF76FFA01001A4B18004B
:104B6000FCF76AFE194900220520FCF789FB18486A
:104B70000121FFF733FE200002B010BD154B164A8D
:104B80001648C821FFF7E2FC0C48FCF713FECEE7FD
:104B90000D4808220021FEF787FB114A01230093EC
:104BA0000023FA2080000021FFF740FFC043C40F1C
:104BB0000028E0DADBE7C046E426061000130120F7
:104BC0007B1301205D4A001028D2002065490010A7
:104BD000000F002080E80110BC360210F0ED01103B
:104BE0007549001010B5002001F0CEFB10BD00008B
:104BF00070B504000D00FFF7F5FF002836D0002047
:104C000001F0DCFB002835D0FDF758FA1D4A0023DF
:104C100012184B41002B1ADB1B4818F0F9FF002833
:104C20002CD0FFF7DFFF002804D0002001F0C6FBE6
:104C3000002810D101200021404201F035F9032362
:104C40005B421C00104819F003F8200070BD0122DF
:104C500052420E4BE0E72A002100002001F0BAFB8F
:104C6000041EEFD103235B421C00EBE703235B42EE
:104C70001C00EAE703235B421C00E6E703235B42D8
:104C80001C00E2E740420F0000130120FFFFFF7FFE
:104C9000F0B583B005000C00FDF710FA314A00238F
:104CA00012184B41002B06DB2F4818F0B1FF0028EB
:104CB00005D103B0F0BD012252422C4BF4E7FFF7BF
:104CC00091FF00284BD12A4B002000211860596029
:104CD000254818F0BDFFECE701200021404201F01B
:104CE000E3F8002001F092FBFFF77CFF0028EFD0F3
:104CF000002001F003FC00281FD0A642E8DAA71B21
:104D0000002001F0FBFB0200874200DC3A00002A91
:104D1000E2D0A919002001F0CDFB070001200021FD
:104D2000404201F0C1F8002001F070FBF619FDF7D8
:104D3000C5F90F4B18605960DFE7FDF7BFF9019027
:104D40000F000B4B186859680A4A002312184B4190
:104D50009F42BDD8D1D101999142CED9B8E7002662
:104D6000CBE7C04640420F0000130120FFFFFF7F4A
:104D7000D819002020A107000048704738370210DA
:104D800000487047E436021010B50400154B1B783C
:104D9000002B0ED0002C11D1134B144A5A80012342
:104DA00001335B009BB21048C02292001343038082
:104DB00010BD0C48112100F02DF8EBE7052C0ED8A2
:104DC0000B4BA400E4580023122BE9D8E15C002926
:104DD000E6D00133044A58008152DBB2F4E70020E8
:104DE000E6E7C04640130120742A002009040000B1
:104DF000CC36021010B5024800F038F810BDC0469D
:104E0000F010012010B502490822FEF753FA10BD38
:104E1000F010012010B50C1E01D0002308E00F4B4C
:104E20000F4A10483B21FFF791FB3732C254013340
:104E3000621E9A420ED90F2B0CD85A080A49895C77
:104E400001229A43920011410F220A40092AECDC08
:104E50003032EBE7C0180023037010BD80EE011064
:104E60004C37021088EE0110F010012070B588B0A8
:104E7000040004AD0D2200212800FEF715FA0D22D2
:104E800000216846FEF710FA4B232B7000230D22F9
:104E90006946280018F0A4FE002304E05A1D694664
:104EA0008A5CE2540133072BF8DD08B070BD70470F
:104EB000014B00221A7070477A1301204B79FF2BA7
:104EC0000CD18B79002B0BD1CB79012B0AD1082A7D
:104ED0000AD98A78054B1A70092000E00020704733
:104EE0000020FCE70020FAE70020F8E77A13012011
:104EF0000120704710B5012928D1117953791B027F
:104F00000B43134909788B4201D000201FE05378EE
:104F1000012B03D0022B12D0002018E09178D37817
:104F20001B021943DB0506D50A06D20F480A0323E4
:104F30001940FDF793FA002201204042F7E764226E
:104F400000210020FDF732FA012000E0012010BD11
:104F50007A130120004870472438021010B504006D
:104F60001000012911D15378012B10D11279437906
:104F70001B021343072B01D0002007E0054A9F3393
:104F80000100200001F0D4F800E0012010BD002055
:104F9000FCE7C0467C3702100123037000487047CD
:104FA0004838021010B50A784B781B0213438A78F0
:104FB00012041A43CB781B0613439622D200934265
:104FC00000D010BD0120002211004042FDF746FA3A
:104FD00030B583B004000D0094467F230340C2091E
:104FE000294859008918490140188470514251419B
:104FF00041700021C17005836146C176012A1ED02F
:10500000DC0022498C4664441F4958008018400146
:1050100009188C601C4958008018400109188968DB
:1050200000200860002B15D117495B009B185B011D
:10503000CB1800225A60164ADA6003B030BDDC009B
:1050400014498C46644410495800801840010918DE
:105050008C60DFE7012A0BD0581EC0000E498C4639
:10506000604409495B009B185B01C9184860E4E78C
:10507000581EC00009498C46604403495B009B18D8
:105080005B01C9184860D8E70C300020840010503C
:1050900000011050800010500C00105008001050FB
:1050A00010B5038B3F339B099901C27E022A08D0B9
:1050B000084A1368C3605B181360074A934202D81A
:1050C00010BDD901F4E7054B054A06485221FFF708
:1050D0003DFAC04620D20020FF0F1050E0F0011032
:1050E0009838021024F10110F8B57F240440C50956
:1050F00063005B195B010F4EB44663441E00FFF76B
:1051000067FF002C00D1F8BD0A4B640064196401EC
:105110001C19218B3000FFF7C3FFE37E9B06E1687B
:10512000054A4A4013438022120613436268136003
:10513000E9E7C0460C3000200000105010B5030015
:105140007F201840DB099C46400060444001024B30
:10515000C01800F02FF910BD0C30002010B5002849
:1051600004D101210520FCF727F810BD034B044AA8
:1051700098210448FF31FFF7E9F9C04694F1011086
:105180008838021024F1011010B5002805D1002242
:1051900000218020FFF7D2FF10BD034B034AA2215C
:1051A0000348FF31FFF7D2F994F10110783802106B
:1051B00024F10110024B80225202DA647047C0468B
:1051C0000020115070B5041E27D100F0D1F8164D03
:1051D0000C23AB671549FF220520FCF751F8144852
:1051E00040220021FEF760F8002240210020FFF756
:1051F0007BFF002240218020FFF776FF18F000FDA2
:1052000001232B6480239B05EB649023094AEA5019
:105210002000FFF7CFFF012070BD074B074A642134
:105220000748FF31FFF792F90000115031070020C5
:105230000C30002010D0010094F10110AC380210A5
:1052400024F10110044B1970002904D0034A902363
:1052500080218902D15070476B130120002011502A
:105260000B78DA0605D160221A4202D14B78052B61
:1052700000D070478A78CB781B021343FF2213407B
:10528000014A1360F5E7C0460000115010B5CA7816
:105290009207920F012A0AD088780B79497909027E
:1052A00019434905490DFFF71FFF012010BD0020DC
:1052B000FCE710B518F0A4FC10BD000010B5844642
:1052C000080011001A006346002B03D1FFF736FFD8
:1052D000012010BD034B044A812104488900FFF7D7
:1052E00035F9C04694F101106838021024F101101C
:1052F00010B57F23180008400B4205D1CB09012BC4
:105300000ED00222074B9A66C9094000401840019E
:10531000054BC01880221201002118F059FC10BD65
:105320000122EFE7002011500C30002010B57F2241
:10533000100008400A4200D110BDC90940004018C1
:105340004001044BC0180023C3700022024918F02A
:105350003FFCF1E70C300020FFF7FFFF04E00A7884
:105360000270013101301A00531E002AF7D1704734
:1053700010B580235B040A4A13600A4A13600A4B83
:105380001A6880235B049343F9D1802252010021E3
:105390000648FDF789FF064B09225A6710BDC04633
:1053A00000E0004000F0004008C000400000105045
:1053B0000000115070B504000D001600837E002B14
:1053C00017D1A6820023E3820133A3762561200052
:1053D00018F02EFC002804D00C4A9023802189026A
:1053E000D150200018F0ECFB00280AD001232377CD
:1053F00070BD81780648FFF779FA200018F038FC74
:10540000DFE7200018F0C4FBF2E7C046002011508F
:1054100084F2011070B50500002408E0E31A5B0176
:10542000144A9B18DB68280098470134E4B2124BF9
:105430001B78A3420CD3F1D9104B1B6862019B1857
:10544000002BEFD10E490F480F4AFFF74FFA10E03B
:105450000E4C542200212000FDF726FF201D1022B3
:10546000FF21FDF721FF200014302022FF21FDF74E
:105470001BFF70BD803902106A130120601B0020E1
:105480004C390210BCF2011025020000101D002052
:1054900010B5FFF7BFFF00F097FE10BD70B5060016
:1054A0000C001500486900F099FE63692A0001218B
:1054B0003000984770BD0000F0B5DE4657464E46B6
:1054C0004546E0B583B081460139C8B2FFF758FCC4
:1054D000002803D043789B46022B0CD04E494F48FE
:1054E0004F4AFFF703FA002003B0F0BCBB46B246B8
:1054F000A946A046F0BDC5796C110122494B144064
:10550000240119781026B14321431970AD112A40A6
:105510005201C9B22024A1430A431A700600093679
:105520008278C3781B021343C3189A465BE0F37872
:1055300098463378F6185DE0374938483A4AFFF71D
:10554000D5F90020D0E72C1B6401384BE4182369FF
:105550003A003100484698470190082801D987420F
:1055600013D20135EDB2324B1C78AC4237D3EAD9B5
:10557000304B1C686B01E418002CE8D12649274801
:105580002D4AFFF7B3F90020AEE74346012B10D0B8
:10559000002290451AD9B3789B18DBB22149C9186B
:1055A0000979FF290BD11F49CB181D710132D2B2E5
:1055B000EFE72269214B9A42EAD1D846E8E716493B
:1055C00016481F4AFFF792F900208DE71D482B006F
:1055D000019C2200310001F0F9FAA4466644144B04
:1055E0001B78AB420ED3564514D273780B2B9ED04A
:1055F000012398467378042B9ED153469F1BBFB25C
:105600000025B0E7852204490448D200FFF76EF96F
:10561000002069E7012067E720390210BCF2011081
:10562000D6030000101D0020F10300008039021095
:105630006A130120601B0020FA0300007566001049
:1056400019040000241D0020704770470020704797
:105650000020704770B505000C008878CB781B02DD
:105660001A0A1300062A54D011D8022A29D0032A74
:1056700041D0012A09D1FFF77FFB021E1AD0122365
:105680002100280000F054FD29E0002027E0072A2F
:1056900017D00F2A0CD1FFF75DFC021E43D0817892
:1056A000C3781B020B432100280000F041FD16E0E7
:1056B000002014E020492148214AFFF717F9002073
:1056C0000DE0022B0CD0FFF7C3FF021E2DD0917806
:1056D000D3781B020B432100280000F029FD70BD88
:1056E000FFF74EFB021EF2D113491448154AFFF78B
:1056F000FDF80020F3E70B79497909021943FFF718
:1057000043FB021E13D003782100280000F010FD97
:10571000E5E7FFF79BFF021E0BD00378210028006E
:1057200000F006FDDBE70020D9E70020D7E70020E6
:10573000D5E70020D3E7C04608390210BCF20110BB
:105740003A040000610400007047704770477047DA
:10575000024B5878431E9841C0B27047101D00207C
:10576000024B18784007C00F7047C046101D00203C
:10577000034B1878FF38431E9841C0B27047C046AB
:10578000340F0020F8B506000C000F00FFF7F0FF03
:10579000051E45D1002C21D02C4854220021FDF7B4
:1057A00083FD2B4B00221A702A4C2000FCF702F8D4
:1057B000294B1C60294C2000FCF748F8143C2000C1
:1057C00001F084FC264B1C60264B002B04D026489D
:1057D000FFF7E2FB254B1860002410E0E922244982
:1057E00024485200FFF782F81AE0E31A5B01224ACC
:1057F0009B185B68002B0DD098470134E4B21A4B1C
:105800001B78A3420ED3F0D9184B1B6862019B187A
:10581000002BEED1F822164916485200FFF766F821
:105820002800F8BD154B1E7039003000FFF7CAFC88
:10583000051E03D03000FFF791FCF1E7FC220C4974
:105840000C485200FFF752F8EAE7C046101D00204E
:105850006C130120081D0020641D00202C0F002067
:10586000681D0020994F00106A130120601B002062
:1058700070390210BCF2011080390210340F002080
:1058800070B50C00114B1B781E008B7870221A42E9
:105890000DD10F4B9978200001F042F9051E0ED072
:1058A00021003000FFF7F2FC0500280070BD094917
:1058B00009480A4AFFF71AF800231D00F5E70549D1
:1058C0000548074AFFF712F8EFE7C046340F0020FB
:1058D000101D0020D8380210BCF201100B0500008A
:1058E0000C050000F8B5CE46474680B580460C0052
:1058F00016009946002516E017491848184AFEF781
:10590000F5FF00273800C0BCB946B046F8BD9D225F
:1059100011491248D200FEF7E9FFF3E7099A137024
:105920002378E4180135AE4214DD6378052BE3D10A
:10593000E1788907890F4945DED121004046FFF70C
:105940009FFF071EE3D0A378DA09012AE6D0089A60
:105950001370E5E70127D5E7E8380210BCF2011023
:10596000E704000010B57F200840C9094000401836
:105970003030044BC0180430034B196801F084F830
:1059800010BDC046101D0020641D002010B57F20F2
:105990000840C909400040183030044BC01804309A
:1059A000034B196801F09BF810BDC046101D002084
:1059B000641D0020F0B583B00193194B18787F2443
:1059C0000C40CD09174B6600B44663445B19303375
:1059D0001B79DB071CD4134B6600B44663445B1988
:1059E00030331E7901273E431E71019BFFF766FC91
:1059F000002813D10B4B64001B195B1930331A7943
:105A000001218A431A711A7903318A431A7105E018
:105A100005490648064AFEF769FF002003B0F0BDBD
:105A2000340F0020101D0020C8380210BCF20110F5
:105A30003905000070B50A4B18787F240C40CD0959
:105A4000FFF756FC074A640013195B1930331A79C3
:105A500002210A431A711A7901210A431A7170BD91
:105A6000340F0020101D002070B50A4B18787F24D9
:105A70000C40CD09FFF75AFC074A640013195B1963
:105A800030331A7902218A431A711A7901398A430B
:105A90001A7170BD340F0020101D00207F220A40B3
:105AA000C909044B52009B185B18303318798007E2
:105AB000C00F7047101D0020F0B5C64600B584B079
:105AC00001900C00002000F089FB237860221A402E
:105AD000602A32D0402A39D02378DB06DB0E012B36
