:020000041000EA
:1000000000B5324B212058609868022188439860DF
:10001000D860186158612E4B002199600221596106
:100020000121F02299502B49196001219960352056
:1000300000F044F80222904214D00621196600F024
:1000400034F8196E01211966002018661A6600F04E
:100050002CF8196E196E196E052000F02FF8012189
:100060000842F9D1002199601B49196000215960AB
:100070001A491B48016001219960EB211966A021F2
:10008000196600F012F800219960164914480160C1
:100090000121996001BC002800D000471248134993
:1000A000086003C880F30888084703B5996A0420EC
:1000B0000142FBD001200142F8D103BD02B5186610
:1000C0001866FFF7F2FF186E186E02BD00000240BE
:1000D000000000180000070000035F00212200005C
:1000E000F4000018222000A00001001008ED00E03C
:1000F00000000000000000000000000074B24E7A12
:1001000000200420F7010010CB010010CD010010E9
:10011000C9010010C9010010C9010010C901001077
:10012000C9010010C9010010C9010010CF01001061
:10013000C9010010C9010010D1010010D301001045
:10014000C1010010C1010010C1010010C101001067
:10015000C1010010C1010010C1010010C101001057
:10016000C1010010C1010010C1010010C101001047
:10017000C1010010C1010010C1010010C101001037
:10018000C1010010C1010010C1010010C101001027
:10019000C1010010C1010010C1010010C101001017
:1001A000C1010010C1010010C1010010C101001007
:1001B000C1010010C1010010C1010010C1010010F7
:1001C000EFF30580103800BE00BE00BE00BE00BECA
:1001D00000BE00BEF2EB8871443606106836061089
:1001E0003802001090A31AE700201E49086006C8D4
:1001F00081F3088810471C480068002801D00020BF
:10020000F3E70DA40ECC002902D000F012F8F9E7B4
:100210001649174A002000E001C19142FCD115495E
:100220008847154988471549884700BEFDE701C939
:1002300001C29A42FBD3704768360610E0000020E6
:100240005C1B0020E4500610000004200000042085
:10025000E4500610001004200010042000000000EC
:100260007047000008ED00E0000000D05C1B00209B
:10027000DC160120654B0010A1040010254B001076
:1002800010B50B008021024A024804F0D1FB10BDDA
:10029000280F0210C033002010B5141CC4B0FF2A70
:1002A00000D9FF24A4B2220004A803F00BF86A4688
:1002B00000232F4910322F48135504F093FE2E4986
:1002C00004A81BF011FE002834D02C4804F008FECE
:1002D0002B4B1A7C002A23D00022002000211A7404
:1002E00013F0ECFF274804F0FBFD274904A81BF09E
:1002F000FBFD041E12D010220021684602F0DCFF34
:100300006A46200021491BF055FB012825D06A468A
:1003100020001F491BF04EFB01281ED044B010BD29
:100320000132012100201A7413F0C8FF194804F0AB
:10033000D7FDDAE7184904A81BF0D6FD0028C4D180
:10034000164904A81BF0D0FD0028BED1144904A80A
:100350001BF0CAFD0028B8D1C7E7124C69460F222E
:1003600020001BF02DFC21000F4804F03BFED5E7D8
:10037000C03300202C0F0210500F0210900F0210FB
:1003800044340020EC0F021008100210101002106C
:1003900054100210D00F0210600F0210700F0210E4
:1003A000800F0210981100202410021010B50029AF
:1003B00004D10549054804F015FE10BD0A000448A3
:1003C000014904F00FFEF8E76810021078100210DF
:1003D000B010021010B5002900D110BD014804F082
:1003E00001FEFAE7E810021010B5040000290ED053
:1003F0000A68094B08001A600122084B1A7013F0B2
:1004000073FB21000200064804F0ECFD10BD210042
:10041000044804F0E7FDF9E7BC330020CA160120C8
:10042000141102103C11021070B50600140082B0C5
:10043000002A15D10125124804F052FD114B30005D
:10044000114A12491D7000231AF0A8F8002230004A
:100450000F4B10490195009419F0C6FE02B070BD13
:10046000002511000C4804F0BDFD0C4C054B206824
:100470001D700028F2D01AF0A5F82560EEE7C046FE
:100480007C110210CB16012099020010810200108D
:10049000AD03001068100210A811021040340020B3
:1004A000F0B5DE4657464E464546E0B5F9B004F095
:1004B0007DFC0F2000F020FDD02380221B061202BD
:1004C0009A62012100220F2000F0A8FC01F0C0FD7B
:1004D000002901D100F00EFCFA220023920002F064
:1004E00091F90400BE4D0AE0FA220023920002F0C6
:1004F00089F9001BA84211D8322001F0A3FC04F0B6
:100500007DFF00280AD101F0A3FD0029ECD1FA21DA
:10051000890002F039F9001BA842EDD9B14804F076
:10052000DFFCB14804F0DCFCB04804F0D9FCB04B6F
:10053000B04898460123424641461360AE4A0B74C8
:100540004A60AE4A8A60AE4ACA6004F0C9FCAD484F
:1005500013F0ACFE041E01D000F012FC13F04EFEAE
:10056000A94D2100280046AE209517F0FDFE01217F
:10057000200013F0A3FE320021002800119617F08E
:1005800049FF75797278B3783178029535799F484B
:100590000195F578009504F025FD072371799C48B5
:1005A000194043460131196004F01CFD994E9A48E8
:1005B000310004F017FD994B994F1D0039003000B0
:1005C000984B994A13F028FE002812D0022C10D024
:1005D000A11C280004F006FDFA20C00001F032FC46
:1005E000390030008F4B904A013413F015FE00287B
:1005F000ECD1209C05000021200017F04BFC8B4F14
:100600008146E359002B00D17BE33100884804F098
:10061000E9FC884813F068FA0100874804F0E2FC1E
:100620000123864A1292137001F012FD0C900D9175
:1006300001F00EFD824B0E901793824B0F91199390
:10064000814B1C93814B1F93814B2293814B2393AE
:10065000814B2493814B2993814B2A93814B99465B
:10066000814B2B93814B2593814B2693814B279371
:10067000814B2893814B1093814B9B46814B1A935E
:10068000814B1B93814B1893814B1593814B139393
:10069000814B1493814B1693814B1D93814B1E9379
:1006A000814B219313F01AFE01F0D2FC129B06003D
:1006B0001B780F00002B04D0179B1B78002B00D158
:1006C00037E201F0C5FC04000D0020F005FC109B92
:1006D0001B78002800D0EDE0D022120652681204E8
:1006E00000D4E7E0002B00D1A4E15B4620000CCB56
:1006F0002900801A99410A1E03D16C4B984200D8F8
:1007000098E15B4630C30023109A1370002004F078
:1007100051FB041E0FDB002004F04CFB0028FADA2A
:10072000202322009A431300533B012B00D8D2E030
:10073000202C00D1CFE00E9B0F9C30003900C01A56
:10074000A141002900D079E1594B984200D975E1C7
:100750000C980D9932003B00121A8B411100002BAE
:1007600000D1B9E143461C7C9D68DB680B93159B67
:10077000002C00D15CE1424612680B989246149A14
:1007800007930892069402F05FFC04900591281CE0
:1007900002F05AFC434602900391586802F054FC60
:1007A000119C009001915346C8212000139A04F037
:1007B0003FF90138C6280CD82100169804F012FC25
:1007C0004B461868002804D01AF068FB002800D0B7
:1007D0002BE20C960D970A2001F034FB62E7C0462D
:1007E000B80B0000F41102102C1202106412021057
:1007F000443400209C1202100020E1430000B44168
:1008000000006842435A0000F82400200C13021034
:1008100050130210841302108C130210C013021024
:10082000B41302103075000004004000D808000026
:1008300084140210D02D0020AC140210CC1601201C
:10084000CB160120CA160120BC330020D0140210A0
:10085000E014021014150210E903001040150210F4
:100860006C150210403400209C150210CC150210AB
:10087000041602102904001020160210D3160120BD
:10088000F81D0020D00F0210EC0F0210E41102102E
:10089000EC1102105816021098110020C016021018
:1008A000D0160210D5030010E4160210F049020021
:1008B0009F860100002B00D028E75B4620000CCB70
:1008C0002900801A99410A1E00D115E15B4630C308
:1008D0000123109A137043461B7C002B00D000E1CB
:1008E0004246002001330121137413F0E7FC1A98EB
:1008F00004F0F6FA43461B7C159A002B00D1189A97
:1009000041460C6806934346149907920891D868AB
:1009100002F09AFB434604900591986802F094FB1C
:10092000434602900391586802F08EFB2300119C0D
:1009300000900191139AC821200004F079F8013841
:10094000C62800D9F7E62100169804F04BFB4B4669
:100950001868002800D1EEE61AF0A0FA002800D1AD
:10096000E9E6434640211B681D9A36A804F060F86A
:1009700018F0E0FA119C20001BF0E4FB494600222D
:1009800083B208681E99039202910192009236A9DF
:10099000220019F07BFA040018F0D6FA002C00D1DE
:1009A000C9E62100219804F01DFBC4E6DF49281C9C
:1009B00002F00CFB002813D0DC49281C02F0B7FA27
:1009C000DB490B90504602F0CCFA011C0B9802F068
:1009D000C8FA011C281C02F0AAFA4346051C9860BC
:1009E0004346DB68D349181C0B9302F0E9FA002850
:1009F00013D00B99CF4802F09AFACF490E90504687
:100A000002F0AFFA011C0E9802F0ABFA011C0B9831
:100A100002F090FA43460B90D86032000C980D9982
:100A20003B00121A8B410E960F971100002B68D0D5
:100A3000189BA0E60023109A137067E602F0FAFAFA
:100A4000BE4902F07AFA43461C7C82469D68002C1F
:100A5000ACD0291CBA4802F06AFAB549041C02F06D
:100A6000B5FA002800D1CEE0B649504602F079FA36
:100A7000211C02F076FA291C02F05CFA0123041C06
:100A80004246D568B04994601374281C02F09EFA5F
:100A9000002800D1A6E0AA49201C02F04EFAAB497A
:100AA00002F05FFA514602F05CFA011C281C02F0C9
:100AB0003EFAA549041C02F083FA002800D0A24C9B
:100AC0004346DC605C68A249201C02F07FFA0028E3
:100AD0001DD10E960F973BE69E4B994200D941E6F9
:100AE00079E60023424600210020137413F0E6FB50
:100AF0001B9804F0F5F9FDE6974B984200D9E5E61E
:100B000004E6944B994200D865E6189B33E64346C9
:100B10009249986802F05AFA0028DAD09049504673
:100B200002F01FFA011C201C02F001FA4346586033
:100B3000CFE7199B1B78002B00D19BE04B461D682B
:100B4000002D00D0BDE51C9812F0CEFF854A0100B3
:100B50002B9804F047FA19F02DFD4B461860A84277
:100B600000D134E100212DAA209817F053FC22AACD
:100B70003132127822AB2F331B78019222AA303205
:100B800012782021009236A8269A03F051FF002106
:100B9000182230A802F090FB36AB2F933C2322AAF8
:100BA0004032138018F0C6F948462FAB01930095E8
:100BB000279B6C4A1C99006819F008FD040018F086
:100BC000C3F9002C00D17CE52100289804F00AFA32
:100BD0004B461868002800D173E519F0F3FC4B462A
:100BE0001D606EE501F034FA02F024FA5E4902F06D
:100BF000A4F902F02FFA5D4902F0B3F9524902F06C
:100C000099F9041C5CE701F023FA02F013FA584941
:100C100002F093F902F030FA564902F0A2F948497D
:100C200002F088F90223041C2AE7434640211B688E
:100C30001D9A36A803F0FCFE18F07CF9119C2000E8
:100C40001BF080FA4946002283B208681E9903927D
:100C500002910192009236A9220019F017F90400BE
:100C600018F072F9002C00D1B3E52100219804F0AE
:100C7000B9F9AEE51C9C1F98210012F065FE002812
:100C800014D00123199A2000137012F02DFF0100D7
:100C9000229804F0A7F9199B1B78002B00D110E5CE
:100CA000179B1B78002B00D00BE547E71F9C239870
:100CB000210004F097F918F03DF920000023249A50
:100CC0001C9907F09BFE040018F03EF9002C06D09A
:100CD000631DE0D021002A9804F084F9F1E4012397
:100CE000199A1C98137012F0FFFE0100299804F065
:100CF00079F9D0E7FA21890001F046FD0400FFF7F9
:100D0000F1FB020002339A43012A43D0002D00D1A7
:100D10007BE44A462900184804F064F900210800E1
:100D200013F0CCFA154B12937EE4C0460000B44198
:100D3000CDCC4C3D000068428FC2F53C0024744984
:100D400000005C420AD7233D000070413333B33EBC
:100D500000C0DC433F420F00F049020000000C429B
:100D60006F12833B5B070000001B374A9A99193EBC
:100D70000024F449CDCC4C3E3C140210CC1601208A
:100D8000154804F0ADF8154B209346AB1193144B66
:100D9000129349E4134804F0A3F818F0CBF8124872
:100DA00010F030F910480FF041FE1E2418F0CCF876
:100DB00002E0013C002CA9D013F090FAFA20400088
:100DC00001F040F8209BDB59002BF2D01DE4259860
:100DD00004F086F875E4C046DC120210F824002006
:100DE000CC160120F8130210CC2D002010B54024A1
:100DF000074A83009A181268C0005440C02222405B
:100E0000044C1B191A60044BC018416010BDC04649
:100E100004C0014004D0014000400140064B800066
:100E2000C3181B68C90092000A435A400C231340A0
:100E3000024A80180360704704C0014004D001409A
:100E40008000002904D0054BC018022303607047BE
:100E5000034BC01802230360F9E7C04604E00140D9
:100E600004F00140D02330B507241B0615001A6892
:100E700053009A18C3082040800081401800084C95
:100E80003C30120180009B0001519B18002D03D0C3
:100E9000044A9B18196030BD034A9B181960FAE791
:100EA000004001400061014000710140D02310B5B5
:100EB00004001B061B6807489B0084461858044220
:100EC00006D12043644618510D2000F0A3F910BD4F
:100ED00001F002FB3015012010B504000D2000F0D8
:100EE00075FAD0231B061B6802499B005A58A2437F
:100EF0005A5010BD301501200123D0228340120624
:100F000093629361084A83009A1811684022514005
:100F100080320A400549C0005B181A60044BC018B3
:100F2000052343607047C04604C0014004D001401F
:100F3000004001408023DB051868000F7047C04661
:100F40000FB400B5084883B003F0CAFF049B002B20
:100F500007D005A91800019103F0AEFD034803F086
:100F6000BFFF012003F0C0FD181702107811021016
:100F7000EFF3108072B6034A1368002BFCD0BFF366
:100F80005F8F70472C0100D0BFF35F8F0022024BB0
:100F90001A6080F3108870472C0100D070B58C4621
:100FA0001600EFF3108472B60F490B68002BFCD0CB
:100FB000BFF35F8F6346DB08C5180722C05C63463A
:100FC0001A40012393401A000240034207D11843FC
:100FD0002870BFF35F8F0A6084F3108870BD61468C
:100FE0003000FFF7ADFFC0462C0100D0F8B5CE466B
:100FF00047468C4680B51C00EFF3108872B61C493A
:101000000B68002BFCD0BFF35F8FA24221D80723CF
:10101000994602E00132944218D349460126114014
:101020008E40D308C718C35C1E42F3D1100033436F
:101030003B70BFF35F8F00220D4B1A6088F310885E
:1010400000280EDBC0BCB946B046F8BD01204042C6
:10105000EFE7BFF35F8F00230B6088F31088012058
:1010600040426346002BEDD00898FFF769FFC04669
:101070002C0100D010B584460A00EFF3108472B63C
:101080000B490B68002BFCD0BFF35F8F0723D00800
:10109000134001229A4063461B5C934362461354FB
:1010A000BFF35F8F00230B6084F3108810BDC04630
:1010B0002C0100D0044A1078431CDBB2172B00D956
:1010C000102313707047C046A811002000B5054BCF
:1010D00083B00100009318221F230348FFF786FF07
:1010E00003B000BD28170210B42400200021044BD7
:1010F000044ABFF35F8F02C39342FAD17047C046E0
:10110000000100D0800100D0084B094A1360094A51
:101110001360094A1360094A1360094A1360094AB7
:101120001360094A1360094A136070478080808009
:1011300000E400E004E400E008E400E00CE400E087
:1011400010E400E014E400E018E400E01CE400E037
:101150001F2318401E3B8340002905D0C021044AAC
:101160004900535013607047802201498B50FAE7C1
:1011700000E100E001228240034B1B6813405A1E2D
:101180009341D8B27047C04600E100E001238022BD
:101190008340024952008B507047C04600E100E096
:1011A000054B10309B688000C358044A00209B1AEE
:1011B00047229A424041704700ED00E0AC11002008
:1011C00010B5EFF3108C72B60F4A1368002BFCD0E9
:1011D000BFF35F8F0D4B10309B6880001B580C4A8B
:1011E000934201D099420CD1084B9B681950BFF330
:1011F0005F8FBFF35F8F0022034B1A608CF3108860
:1012000010BD01F069F9C046240100D000ED00E0F6
:10121000C1010010F0B5DE4657464E464546E0B5E2
:101220008B4685B0EFF3108872B616005B4A1368E0
:10123000002BFCD0B246BFF35F8F002558494D57B5
:10124000002D00DAA8E06B00564A01935B199B0061
:10125000D418A77910300F705349800089688446EC
:101260000F58B91A472933D8012039008143CE7964
:10127000564500D86AE0A1465646039307E0580059
:10128000C01880001018C479B4424DD9010006235B
:10129000CB56002BF3DA081D4C46B246814602932A
:1012A000424B4E46043CA41B2405414E640D34437E
:1012B0008C808D7101994919890052189380029B85
:1012C0003C4993715346D3715B461160936017E0BC
:1012D00039498F4260D139490127D1523849023307
:1012E000D3180439CB1A324A1B055B0D13436380B4
:1012F000344BE671A380FF23A3715B462743A360B1
:101300006246294B9B689F50BFF35F8FBFF35F8F8F
:101310000022224B1A6088F3108805B0F0BCBB464F
:10132000B246A946A046F0BDB2460E1D4C46B14697
:1013300088880293039B4005001504334844D31862
:10134000C31A1B051A485B0D0343AAE79E1CB1464E
:1013500091444E460F001C4DBF1A7F417D432D0D19
:10136000164FA571D752164F0433043FD318BF1B35
:10137000CB1A3F05043B7E0D1B050D4F5B0D3E4315
:101380001F435346E3715B46A3600A4BA780668008
:10139000044327000B60B3E701F09EF8240100D05E
:1013A000CD160120AC11002000ED00E001BD0000D1
:1013B00000E0FFFF01488047C101001000A1FFFFCE
:1013C000F411002001BDFFFFAAAA0000F0B5DE461F
:1013D00057464E464546E0B583B0EFF3108972B6E6
:1013E0005D4A1368002BFCD0BFF35F8F5B4B5C4EF4
:1013F0009A68030010339C0012599846B2423BD0C1
:101400008A424CD0574FBC46D71B472F34D8564B37
:101410001F271D680740AA460125BD40802701956A
:10142000DD51BFF35F8FEFF30585AB46002D38D15B
:1014300001231D00854028005546054010009843B3
:101440008768AA46B94208D17CE073009B199B00CB
:1014500063449F68B9422DD0180006268657002E97
:10146000F3DAB9424CD05346002B1ED0C0213E4B7C
:101470000198490058501860384B9B681A51BFF3C7
:101480005F8FBFF35F8F0022334B1A6089F31088A0
:1014900003B0F0BCBB46B246A946A046F0BD320040
:1014A000EAE7A845C4D001F017F880232E49019837
:1014B000C850E1E70627DF57002F22DB7900C81963
:1014C00085002E006644B0689860F079D8710620D7
:1014D00030569871002826DB6046B688C01A76051B
:1014E0003615761980190005204E400D304398803E
:1014F000CB191F499B000878634498710F70B2E7BD
:1015000003005946002910D1FF31817119498180AA
:10151000174865460178997117495B1B5B41594330
:10152000090D01709FE71348E1E714491448C91AEF
:1015300008394E02760D304398801248490801431D
:10154000D98090E70627C7570300002FB6DA59461F
:101550000029EAD13200DBE7240100D000ED00E0F1
:10156000C1010010AC11002000E100E000E0FFFF2D
:10157000CD16012001BDFFFFAAAA0000FE11002028
:1015800000F0FFFF00F8FFFF084A83089B009B184C
:101590001A6810B5140003221040C000FC328240CB
:1015A0009443220081400A431A6010BD00E400E029
:1015B0000123034370B59C46EFF30581EFF31085DB
:1015C00072B6274A1368002BFCD0BFF35F8F254A01
:1015D0000400254BA41A644163431B0D234C89006E
:1015E000A6685BB27658664524D0062151569942CA
:1015F00024D01221515699422AD01E215156994287
:1016000028D02A215156994226D036215156994246
:1016100024D0422151560524994210D0144A117801
:1016200013708171BFF35F8F00220D4B1A6085F339
:10163000108870BDA2680F4C5450EFE70024610081
:10164000091989005218FF2191710B499180E5E732
:101650000124F4E70224F2E70324F0E70424EEE790
:10166000240100D0AC110020AAAA000000ED00E087
:10167000CD160120C101001001BDFFFF1F2110B5D3
:10168000091A0248FFF7F6FC10BDC046D916012022
:1016900000B5074B83B001000093002205230548E5
:1016A000FFF7A4FC002801DB1F23181A03B000BDBC
:1016B00044170210D916012070B504000E00150061
:1016C000FFF7F8FC0100200000F006F8A680E58096
:1016D000BFF35F8F70BDC046024BC918890001601F
:1016E0007047C0464000003470B5114C114DAC42FB
:1016F0000FD2FF262368002B0CD0FFF7DBFC010084
:101700002000FFF7E9FFA680BFF35F8F0834AC42EB
:10171000F0D370BDFFF7CEFC01002000FFF7DCFF27
:101720002671BFF35F8F0834AC42E3D3F1E7C046C4
:10173000541B00205C1B002010B50400FFF7BAFC0E
:1017400001002000FFF7C8FFFF232371BFF35F8F65
:1017500010BDC04610B50400FFF7ACFC010020002E
:10176000FFF7BAFFFF23A380BFF35F8F10BDC04612
:1017700010B504000120FFF7A9FC034BC01880003E
:101780002060BFF35F8F10BD40000034034BC918C9
:1017900089000160BFF35F8F7047C046400000348E
:1017A00040BF002000217047F0B5DE4657464E4648
:1017B0004546E0B585B0EFF3058303221A40B14BEF
:1017C00091005B5803929846012393401A000193BD
:1017D000AD4B02911A60082343449946019BAB48E4
:1017E0004363434608229B5E9A46002B00DBB9E028
:1017F00043469B881BB2002B00DA26E143461B6957
:10180000EFF3108272B619680029FCD0BFF35F8F26
:1018100043469E88012341465B428B8036B20B696A
:10182000BFF35F8F0021196082F31088002E26DB42
:1018300043465D697400A41908201A5EE400494615
:101840002C19002A14DBA0689A468046E06807E05D
:10185000834200D181E00023FA5E3900002A06DBD2
:101860005700BF18FF00EF19FB688342F0DD5346B5
:101870000E800021665E2280002EDBDA9846434609
:101880000821595E002900DADFE043465A694B001F
:101890007E485B180299DB00D3180918826A9D689C
:1018A000DC680B69AE1A9B1A9E421BD30123026AA5
:1018B000039883401A4215D043469B79002B16D1DA
:1018C000724800F0BDFB8C4204DC00D086E7854204
:1018D00000D883E740BF05B0F0BCBB46B246A9467E
:1018E000A046F0BD43460D619B79002BE8D0002354
:1018F00042469371434608229A5E531CE0D0474605
:1019000048460026A846A34602E00800531C20D003
:1019100053007D699B18DB00E9181400EA5E4B88D0
:101920001BB2002BF1DA02803B69EFF3108A72B62A
:101930001D002B68002BFCD0BFF35F8F7B880B80D2
:101940003B697C80BFF35F8F1E608AF31088531C55
:10195000DED145465C46B846B2E7BB68434500D891
:1019600079E784E7424652695B0093465344DB00C3
:101970009B445B469E68DF6800F062FB8F422ADC76
:1019800030D05B465A461B695469022B32D041461F
:101990000820085E52880004210010439847040084
:1019A0000D0023002B432ED0002D48DA30003900E3
:1019B000001BA9415B469860D96000229B5E002B0A
:1019C00009DB42465E005469F218D200A2189768FB
:1019D000D2688A425CDD43469B881BB2002B00DA4A
:1019E0004DE70BE78642F6D85B465A461B695469B9
:1019F000022BCCD1200023699847002803D030CC9B
:101A000023002B43D0D15B4642461B8813811269C9
:101A1000EFF3108372B611680029FCD0BFF35F8F1B
:101A20004246594652880A804246514651801269C0
:101A3000BFF35F8F0021116083F31088CBE7134859
:101A400000F0FEFA00196941B4E7104C200000F0E4
:101A5000F7FA80220023120680185941029AA56ADB
:101A600012191369461B5B1B9E4201D2106131E7BC
:101A70000123039D246AAB401C4200D02AE7106179
:101A800028E7C04684D600203C7005400040054051
:101A90008A4201D187429ED845462B81083505E010
:101AA0005E00F218D200A2189768D2688A4206DC5B
:101AB0000AD0F318DB00E518E35E002BF0DA5A4693
:101AC000138053462B8086E78742F2D9F7E7C0465A
:101AD00070B52B4C2569002D00D070BD294E032117
:101AE000284800F0A3FAE660FFF7E4FA264B032249
:101AF000C018D02322701B061B6801216370234B82
:101B00008000A3600F232061022063806369494243
:101B1000A18019800231198647311D83585218312E
:101B20005A5275325C399952183201319952183231
:101B300001319952183201319952083518329D52AB
:101B4000023118329952183201319952183201314A
:101B50009952183201319952183201319952183282
:101B6000013199520A4B0B49DC6001303562FFF7B5
:101B700027FB01210320FFF7EBFA074B1D60ACE7C1
:101B80000C1200200040054040000034FFFF100010
:101B900084D60020A917001038600540004870471F
:101BA0000C120020F8B51F0008AB1B7804001600CB
:101BB000002B07D100F04CFA32003B00121A8B4187
:101BC000002B51DB2269EFF3108C72B61368002BE7
:101BD000FCD0BFF35F8F0223E15E256900293ADB69
:101BE0004B0060695B18DB00C218C35A6380BFF307
:101BF0005F8F00232B608CF31088069B9660D76064
:101C00001361079B5361538801335B045B0C181C01
:101C1000002B1ED083B25080080418432569EFF3CF
:101C2000108672B62B68002BFCD0BFF35F8FA388A1
:101C30001380A1802369BFF35F8F00221A6086F3AF
:101C40001088237801329A400849E3685B181A60CB
:101C5000F8BD0120DEE7BFF35F8F00232B608CF31C
:101C6000108801204042F3E70020F1E73C2000000B
:101C700070B582B00092019301000269EFF3108405
:101C800072B61368002BFCD0BFF35F8F0223C85ECF
:101C90000D6900283FDB4A69430016001B18DB0072
:101CA000D218F35A4B80BFF35F8F00232B6084F36D
:101CB0001088069B1361079B5361009B019C9360F6
:101CC000D460538801335B045B0C1D1C002B20D0B7
:101CD000ACB20304558023430D69EFF3108C72B648
:101CE0002C68002CFCD0BFF35F8F8C881480888018
:101CF0000A69BFF35F8F002010608CF310880A78A8
:101D000001309040CA68084952181060180002B0AB
:101D100070BD0125DCE7BFF35F8F00232B6084F3E8
:101D20001088013BF2E7C0463C20000010B5438913
:101D30000A1493421ADD53009B184269DB00D31842
:101D40000469EFF3108C72B62268002AFCD0BFF34E
:101D50005F8F5A88090494B2090C8A4208D003693B
:101D6000BFF35F8F00221A608CF31088002010BD33
:101D7000094A22435A80012302698371BFF35F8FAE
:101D8000002111608CF31088027804499340C268E6
:101D9000012052181360EAE70080FFFF3C2000009A
:101DA00040787047F0B506000F0006246442E5173E
:101DB000A4197D4183B08D4212D80FD000F048F9AC
:101DC00022002B00121A8B41002B13DC002B30D089
:101DD0003000390000F07CF903B0F0BD8442EDD949
:101DE0000024002500F034F922002B00121A8B4148
:101DF000002BEBDD00F02CF922002B00121A8B4196
:101E0000002B0ADB002301930B4B220000930B48AD
:101E10002B00FFF72DFF0130DAD02900084A536A62
:101E2000994204D8906AA042D2D29942D0D120BF20
:101E3000F5E7002ACCD0DDE7A11700100C12002036
:101E400000400540F0B583B0040000F001F9FA222B
:101E500006000F00200000230021920001F04AF844
:101E60008019794104000D1E02DA0124234D6442D9
:101E700006267642F71736196F41AF4212D80FD0B7
:101E800000F0E6F832003B00121A8B41002B13DC05
:101E9000002B30D02000290000F01AF903B0F0BD6B
:101EA000A642EDD90026002700F0D2F832003B0010
:101EB000121A8B41002BEBDD00F0CAF832003B0018
:101EC000121A8B41002B0ADB002301930C4B3200CA
:101ED00000930C483B00FFF7CBFE0130DAD039000D
:101EE000094A536A994204D8906AB042D2D29942C0
:101EF000D0D120BFF5E7002ACCD0DDE7FFFFFF7F80
:101F0000A11700100C12002000400540F0B5CE468D
:101F1000474680B504000D0085B0EFF3058689467D
:101F2000002E10D03E4900204B6AAB4206D38A6A8D
:101F30005B1B591E8B41A2424041184305B0C0BCF7
:101F4000B946B046F0BD374FFB683A78984618005E
:101F5000039200F075F8039A131D42469B009B58AC
:101F600022001B1A9C462B00121A8B419E421ADC3F
:101F700017D02B4B5A6A4A4505D39B6A0120A342CE
:101F8000DCD24A45DAD120BF254B586A48453CD3BC
:101F9000401B9A6A431E98410023A2425B411843AA
:101FA000CCE79445E5D900F053F822002B00121A33
:101FB0008B41002B25DB002301931B4B2200009358
:101FC00038002B00FFF754FE00281ADD144B5A6A24
:101FD0004A4504D39B6AA34202D24A4500D120BF9E
:101FE00001003800FFF7A2FE0D4A0020536A4B455E
:101FF000A4D3926A5B1B591E8B41A24240411843F5
:102000009CE7074A536A4B4501D2002096E700201F
:10201000926A5B1BA24240415A1E934118438DE7CE
:10202000004005400C120020A117001010B5024A14
:102030000248FEF7B3FF10BD60170210B82400205D
:102040000300416A0A00986A596A8A42FAD17047C5
:10205000034B596A0A00986A596A9142FAD170474B
:102060000040054070B505000E00184A536A19007B
:10207000946A536A8B42FAD1200019002C00350073
:1020800024184D41AB4216D813D0104B2A005B6A7E
:102090009D4203D90D494B6A9342FCD3934207D129
:1020A0000A4A02E0516A994202D1916AA142F9D3E7
:1020B00070BDA042E9D9054B5B6A1C005A1CEFD0E9
:1020C000012201246442E5175242E3E70040054043
:1020D000064A536A9942FCD807D1044B02E05A6A77
:1020E000914202D19A6A9042F9D870470040054067
:1020F000F8B5DE464E4645465746E0B505008B46E8
:1021000018000A99914600F03FFB0A9B6C001E02E2
:102110006419304BA400E418636880469E4200D9DD
:1021200066602F1FFBB29A46012B2FD9C023802255
:10213000294FAD009B0179591201E3181A6000295B
:102140001BD14B4622685B015340E02213408022A2
:102150005201A21813605346012B2FD980238022ED
:102160009B01E31812011A60434666607B51F0BC84
:10217000BB46B246A946A046F8BD786900F004FB0C
:10218000013043001B18033BFDD2DAE75B46012B0D
:10219000CCD1C02303229B01E3181A60023AA36842
:1021A0001A42FCD04A46236852015A40E0231340A9
:1021B00080225201A218084F1360AD005846032335
:1021C000216841400B40136001228240A3681A42FB
:1021D000FCD0C3E700800040C0240020F0B5D64604
:1021E0004F464646440098462418324BA400E41853
:1021F00063688A469146C0B5FF2B02D880235B00F6
:102200006360061FF6B2012E2FD9C02380222A4F09
:1022100085009B0179591201E3181A6000291BD12E
:102220004B4622685B015340E0221340802252015A
:10223000A2181360012E30D9802380229B01E3185D
:1022400012011A6080235B00636043467B51E0BC4F
:10225000BA46B146A846F0BD786900F095FA01305B
:1022600043001B18033BFDD2DAE75346012BCCD1C8
:10227000C02303229B01E3181A60023AA3681A42A2
:10228000FCD04A46236852015A40E0231340802282
:102290005201A218084F136085005046032321689D
:1022A00041400B40136001228240A3681A42FCD0D7
:1022B000C2E7C04600800040C0240020014B8000DF
:1022C000C0587047C0240020F0B5C646040000B5D1
:1022D0002348160098460D0000F056FA0100300021
:1022E00000F052FA4346069A1B04120313439C461D
:1022F00023680600002B22DB1A4B1B48E218531EF2
:102300009A4180235242120B9B011203D218174BA1
:102310001A60174B1A60130001688B43FBD121220E
:10232000144B2560E318A6601A602268002AFCDAC4
:102330006246E26008221A6080BCB846F0BD3F23C6
:1023400022681340AB42D7D1A3681B051B0D834203
:10235000D2D1EE22E368D20213406345CCD1EBE741
:10236000001BB7000040FDBF08C0004000E0004077
:1023700000F000400430000010B580241C4BE40540
:102380001C6000281AD001231A4C18431A4BDC6138
:102390001A4C44401C62596298628021144BC90552
:1023A0001960174817490860E021C9041960002A1C
:1023B00007D18022144B12061A6010BD0E4BD86153
:1023C000EBE753019B1A9B009A18802312015B04D0
:1023D0009A4209D213000D490B60074B5A608022C4
:1023E000094BD2051A60E8E7094B1A00F3E7C0462B
:1023F00000B00540D3C007B0008005402D3FF84F26
:10240000FCFF01000820014000A005409438002096
:10241000FFFFFF008023024A9B000B43D3627047FB
:1024200000800540002310B50100988A1B8B984757
:1024300010BDC046162310B5010018885B88984768
:1024400010BDC046F8B54746CE4680B50F1E18D021
:1024500014239946043304000025012698464B4670
:102460001888434621681B88984701C4431E984139
:1024700001350640AF42F2D13000C0BCB946B0468B
:10248000F8BD0126F8E7C046002370B504000D0032
:10249000988A05491B8B984703000020002C01DB1C
:1024A0000130A0402900984755420000AA23064A5F
:1024B0001B0113608D235B00D3600449044B19603A
:1024C0005368002BFCDA70470040024000B0FA006D
:1024D000006002407047C04610B50148FEF730FD6D
:1024E0008417021070B5074D074EB54209D200247B
:1024F000013E761BB608013608CD01349847B44238
:10250000FAD170BDE80E0210240F0210054B064AE6
:1025100006491A60064A074B1A6010000B68984378
:10252000FBD1704700E00040BFCDFBFE08C000407B
:10253000FE7F3C0000F00040044BDB6C002B03D11D
:102540008022034BD2021A607047C046000011502F
:102550004C201150044A054B1A60054A1368DB01F0
:102560008033FBD17047C046FFFFFF0100F0004001
:1025700008C000404022034B9A675A671A67DA6620
:102580007047C04600F0014010B5FEF7AFFD10BD2A
:1025900070B52749274E284D761AB4082200302CF2
:1025A00000D930222800920000F08CFE2F2C3BD85E
:1025B00023002A3B214A052B1BD93020AE19710775
:1025C000001B2600CB0F002902DAA1006A50661C0E
:1025D000C01AE3189B004108EB18C900C9181A601B
:1025E0005A6008338B42FAD1012303421CD098432E
:1025F0008419A300EA50631C2F2C15D09B00EA50CD
:10260000A31C2E2C10D09B00EA50E31C2D2C0BD0C9
:102610009B00EA50231D2C2C06D09B00EA50631D22
:102620002B2C01D09B00EA50054B9D6070BDC0462D
:1026300000010010C001001000000020C1010010C6
:1026400000ED00E0002310B5294C82B0A367FFF72E
:102650002DFF0122274B1A60636C012BFCD1032252
:10266000254B1A60224A936B012BFCD10133009356
:102670000121224A22480433FFF726FE05230121C7
:102680000093204A2048FFF71FFE00220221042069
:102690001E4BFFF7A3FD0022012105201C4BFFF775
:1026A0009DFD0022002107201A4BFFF797FD002215
:1026B00000210820174BFFF791FD8023DB000093DA
:1026C000002200210920134BFFF712FD0022104BBE
:1026D00000210620FFF782FD0420FFF7EFFD0E49E1
:1026E00000F052F801000020FFF794FE02B010BD88
:1026F000008000403CB0004030B00040002F6859DE
:1027000000800240008C864700C00240001BB700DA
:1027100040597307006CDC0240420F00014804215D
:10272000014B18473012002045240010014B9B68D4
:102730001847000030120020124A936F9B0815D2F0
:102740009066D166002905D0FFE7FFE7FFE7516FEC
:10275000106F704704B580210906C2175140002848
:1027600000D0C8431EF068FB002104BDF0B5146E14
:10277000556E576F166FFFF7E3FF14665566576780
:102780001667F0BD000000D0114A936F9B0813D26A
:1027900010665166002905D0FFE7FFE7FFE7516F9C
:1027A000106F704704B5002801D00020C0431EF010
:1027B00043FB002104BDC046F0B5146E556E576F43
:1027C000166FFFF7E5FF1466556657671667F0BD8D
:1027D000000000D094464A4A926F9208624601D2A5
:1027E00028E0C046F0B5464E346E756E776F366F92
:1027F00000F020F89446424A1466556657671667FB
:102800006246F0BD94463E4A926F9208624601D2FB
:1028100054E0C046F0B53A4E346E756E776F366F41
:1028200000F04CF89446364A1466556657671667AA
:102830006246F0BD002B24DB11D000293EDA00B542
:10284000C943404200D1013100F038F8C943404249
:1028500000D10131DB43524200D1013300BD002AD7
:10286000EBD1002801D1002905D00020C90FC907EC
:1028700001D1C043410800B51EF0FEFA002200233A
:1028800000BD00B500290ADBDB43524200D1013311
:1028900000F014F8C943404200D1013100BDC943E2
:1028A000404200D10131DB43524200D1013300F0FC
:1028B00005F8DB43524200D1013300BD002923D18A
:1028C000002B18D1002A0CD0BC460D4F38667A6612
:1028D00000210023FFE7FFE7FFE77A6F386F6746C5
:1028E0007047002801D00748010000B51EF0C4FA67
:1028F0000022002300BD02000B00002000217047D1
:10290000000000D0FFFFFFFF002B00D0BFE0130C42
:1029100028D1002AE7D080B4114F39667A66FFE7E4
:10292000FFE730B4040C7B6F396F1B0423433B6615
:102930007A66FFE7FFE7FFE7C04684B27B6F3D6F33
:102940001B0423433B667A66FFE7FFE7C04600238C
:102950002C042D0C7A6F386F00196941B0BC704798
:10296000000000D0F0B594460025140E01D11202EB
:102970000835140F01D112010435940F01D19200D2
:102980000235D40F01D152000135D40B0134254F4B
:102990007C66254C3C660E0C93B2FFE7FFE7FFE731
:1029A0003C6F6643360C7703BE467343DF0B5B0414
:1029B000C01AB941130C7343DB18C91ACE08664319
:1029C000360CB64493B273431F0F1B01C01AB941B2
:1029D000130C73431F0B1B05C01AB941860D8F02E0
:1029E0003E436643360C092D24DB520A7243801A9B
:1029F0007703460A6643360C16235B1BDE40DF4036
:102A0000BF1964466643821B7046043506330100D5
:102A1000D940A840C01900D30131A24206D20023F8
:102A2000F0BD0000000000D0FFFFFFFF121B0130CF
:102A3000F3D3F1E709277F1BFE406446A2B272433D
:102A4000801A00D20139220C7243130C1204821A2C
:102A500099410B007046043513370100F940A84036
:102A6000801900D30131002B02D1A2420AD2F0BD5D
:102A7000013000D30131121BFAD2013BF8D1A2423E
:102A800000D2F0BD013000D30131121BF7E7F0B5E1
:102A90001C0C00D080E00CB400251C0A04D11B02E1
:102AA000160E3343120208351C0B04D11B01160FFE
:102AB0003343120104359C0B04D19B00960F334322
:102AC00092000235DC0B02D192185B4101351C00EB
:102AD000971864410134464F7C66464C3C660E0CA8
:102AE000FFE7FFE7FFE7C0463C6F6643360C77031E
:102AF000BE4697B27743C01B00D20139C01B00D23B
:102B000001399FB27743C91BC91B170C77437E0459
:102B1000FF0B801BB941CE086643360C0C2D33DB0E
:102B2000B644120B1F053A431B0B97B27743C01BE9
:102B300000D201399FB27743C91B170C77433E047B
:102B40003F0C801BB941860D8F023E436643292707
:102B50007F1BFE400C3D7746AF40BF1930BCA2B290
:102B6000ABB272437343801A9941220C7243130C27
:102B70001204801A994102000B000137001BA94181
:102B8000F9D2781E0021F0BD0C277F1BFE4077464E
:102B90007F0BAF40FF19E0E700245D1C07D0144F06
:102BA0007D663966FFE7FFE7FFE7FFE73C6F95B219
:102BB0009EB265436643401BB141150C1E0C654334
:102BC000664336042F0C3E432D04401BB14199420D
:102BD00004D202000B0020000021F0BD01D1904280
:102BE000F7D3801A994101349942F2D3F6E70000F5
:102BF000000000D0FFFFFFFF48404140484018B4AC
:102C0000134B5B68019308BD18B4114B1B6801930B
:102C100008BD94460F4A926F920805D2624618B4D6
:102C20000B4BDB68019308BD0A4AF0B5146E556E74
:102C3000576F166F6246FFF7F2FF064A1466556635
:102C400057671667F0BD18B4014B9B68019308BD28
:102C5000081E0020000000D0FFB550404240504008
:102C600059404B40594000E0FFB5154F4C00640DF2
:102C700003D0BC4204D10C0314D80020090D09056F
:102C80005C00640D03D0BC4204D11C030AD80022AE
:102C90001B0D1B0501264B4009D44B4003D58B422D
:102CA00000D18242FFBD9942FCD19042FFBD0B434F
:102CB000DB1803431343F5D0C9434918FFBD000097
:102CC000FF07000000B5FFF7CFFF01D0002000BDD7
:102CD000012000BD00B5FFF7C7FF804100BDC04621
:102CE00000B5FFF7C1FF01D9002000BD012000BDE4
:102CF00000B5FFF7B1FF01D9002000BD012000BDE4
:102D000000B5FFF7A9FF804100BD012040054A0042
:102D1000121804D85A00121801D800207047012058
:102D2000704700000021002805D17047C1174840B6
:102D3000401AFAD0C90713B5064B1B6898470CBC5C
:102D4000441CA2401005120B0349091B0905194335
:102D5000114310BD501501201F04000010B54C0098
:102D6000620D8023D218DB00D21A5B057E2A10DDAB
:102D70009E3A13DACC170903490819435242D1404D
:102D8000640001341532202A05DAD040084360433C
:102D900010BD002010BD0846604310BDC80FC0180C
:102DA000013810BD18B4024B5B6A019308BD0000E6
:102DB000081E002018B4024BDB6D019308BD000013
:102DC000081E0020C94211D300B54900490800225D
:102DD00000F014F8002904D4002240428A41114630
:102DE00000BD80210906002000BD000018B4024B80
:102DF000DB6E019308BD0000081E002018B4024BD2
:102E00009B6F019308BD0000081E002018B4024B00
:102E1000DB6F019308BD0000081E002010B50148BB
:102E2000FEF78EF890170210132370B51D78012D50
:102E300019D014DD1D48FFF7FDFA06001C48FFF706
:102E4000F9FA1C4C80223100200000F03BFA022DE0
:102E500006D01948FFF7E6FA184B186070BD154CFC
:102E6000174BA364F5E7174B124C23606360A36014
:102E7000E36023616361A361E36123626362A36230
:102E8000E36223636363A363E36323646364A36410
:102E9000E36423656365A365E36523666366A366F0
:102EA000E36623676367A367E367D9E753440000DA
:102EB00053460000081E00204C330000501501202E
:102EC000C92E00101D2E001007B5604601880A0AA1
:102ED0000230DF2AFAD1C9B2820804D302884088BE
:102EE0000004104300E00068014A5050039007BD01
:102EF000081E002051434343C9188C46110C83B26D
:102F00004B4310B4040C614392B280B2504362430D
:102F10001C041B0C001910BC59411304120CC018DE
:102F200051416144704700004840414048400E4BC9
:102F30005B6818470C4B1B6818470C4A936F9B083B
:102F400002D2094BDB681847F0B5146E556E576F07
:102F5000166FFFF7F6FF054A146655665767166742
:102F6000F0BD014B9B68184754150120000000D0AC
:102F700007B548404140484001E0C04607B542001F
:102F8000120E03D0FF2A03D1420218D8C00DC0058B
:102F90004A00120E03D0FF2A03D14A020FD8C90DEE
:102FA000C9050122414005D4414001D5814207BDF8
:102FB000884207BD0143491801D0C043001807BD2E
:102FC00000B5FFF7DBFF804100BDC04600B5FFF74D
:102FD000CFFF804100BD491A002807D1084670473D
:102FE000C10FC90700D54042002817D0F44603B4EA
:102FF0000B4B1B68984706BC81409E38404280318D
:1030000007D20B0607D04900490AC0051043084300
:1030100060470130F8E7490A8902F5E77047000088
:1030200050150120014B1B6B18470000541501205F
:10303000034A10470029FBD0024B5B6E1847000083
:10304000D72F001054150120014BDB6F18470000EB
:10305000541501204100090E862902DA044BDB6B6E
:103060001847044900B500F0F1F802BC8E46F5E7B8
:1030700054150120DB0FC9404100090E862902DAF0
:10308000044B1B6C1847044900B500F0DFF802BC84
:103090008E46F5E754150120DB0FC94010B50148F5
:1030A000FDF74EFF78110210132310B51C7811485C
:1030B000FFF7C0F9012C0BD004DD010080220E487F
:1030C00000F000F90D48FFF7ADF90D4B186010BD89
:1030D000094C01005422200000F0F4F822002000E6
:1030E000084980320368002B00D10160043090420F
:1030F000F8D1E7E753460000541501204C33000097
:10310000501501209D300010F0B54F464646D6467A
:103110004400C0B5051C16000F1C240E002A01D067
:1031200000231360FF2C5DD07B001B0E5AD0002CB7
:103130005BD0281CFF2B50D09A46013BA3424CDCAD
:10314000EA0F914680226D02790212046D0A490A43
:1031500015430A439046A34249D05346E41A4B46CE
:10316000002B4ED06D42002C5ADD43460120D91170
:103170004042FFF709FB1D23814600219C462200A7
:103180000C2C00DD0C2248466B1243436046801A2B
:103190000341280045469040914001335B105D4358
:1031A0005918451BA41A002CE9DCA8453FDC43460E
:1031B000ED1AAB4248DCED1A02316B0043452BDCC3
:1031C0003DD0002F00DA4942002E00D03160962118
:1031D00053462800C91AFFF725FFE0BCBA46B1469E
:1031E000A846F0BDFF20C005F7E70020F5E79542AF
:1031F000F3DD53004A46002A1CD1A2460121ED1AF4
:10320000DFE7002CB1DC0021954205DBAD1A01217E
:103210006B009A4200DBD4D143460131ED1AD0E76E
:1032200000214346ED180DD545440239C5E7002D70
:10323000C3DAF6E70121A2465D1B4942C1E7CB078D
:10324000BFD5E9E70139B8E70131B6E710B500228B
:10325000FFF75AFF10BDC04610B5040017F088FEF6
:10326000002804D0034B04199C4200D810BD02482A
:10327000FDF766FE00000420A817021010B50C0030
:1032800018F04CF9002804D0034B04199C4200D8D4
:1032900010BD0248FDF754FE00000420A8170210DC
:1032A00010B517F06FFE10BD01480421014B1847FF
:1032B0004012002045240010014B1B6818470000F5
:1032C00040120020014B5B681847000040120020AC
:1032D0009A4200D2885470477047C046F8B5DE461F
:1032E00057464E464546E0B599460D9B0700884631
:1032F00093469B0728D00B9B002B3CD016000B9CC1
:103300000A9D3619321B013C4B464146285DB847A1
:10331000002CF7D135000D9B9B070ED55B46EC1AB0
:103320000C9BA34209D91E002A004B46414620208F
:103330000134B8470135B442F6D32800F0BCBB468F
:10334000B246A946A046F8BD0B9B0C9A934214D2F4
:1033500013005D460C000B9A9E1A76192A004B4604
:10336000013521002020B847B542F7D10B9BA0467C
:10337000002BC4D1E1E71500CDE75E46002BBED19E
:103380005D46DAE7F0B54F46D6464646C0B584B04E
:103390009C460EAB1F78129B9146BA460D9C109E20
:1033A000119D9B074CD4002D41D1B44248D201233A
:1033B000129F1F40B8460C9B5F1E302303E0013470
:1033C0003B55A64201D9202CF9D14346002B00D110
:1033D00087E00C9B5F1E3023A54204D830E0013407
:1033E0003B55AC422CD0202CF9D1129BDB060DD5DD
:1033F000129B5B0557D4A64267D0A54265D00F9BB0
:10340000102B53D0022B5BD0202C36D12023129CC2
:1034100001930C9B4A460093039463460295FFF781
:103420005DFF04B0E0BCBA46B146A846F0BD01233A
:10343000129A13409846012313422DD1B442BAD3B5
:10344000129BDB061ED5129B5B05D8D4002CD2D173
:103450000F9B102B60D00F9B022B71D030230124C7
:103460000C9A13705346002B11D1129B5B0740D569
:103470002B260C9A631C1655C9E72300013430260D
:103480000C9AD654202CC1D05346002BEDD02D26BB
:103490000C9A631C1655BAE7002F34D0013DB44294
:1034A00000D288E795E70F9B102BAFD1129B9B06AC
:1034B0003CD5202CAAD058230C9A13550134A3E7ED
:1034C000202CA3D02300013407E0631E012CBFD0C1
:1034D0000F9A102A36D0022AD1D162260C9AD654DD
:1034E00092E7129BDB06CDD5129B5B0500D482E7E9
:1034F00085E7129A2300160700D488E720260C9A45
:103500000133165583E70C2313405F1EBB41ED1AB0
:10351000B44200D24FE75CE7129B9B060ED478239F
:103520000C9A02241370302353709BE7202C00D197
:103530006CE778230C9A1355013465E75823EFE7BD
:103540006033EDE70C9AA61EB618129A920602D5C1
:103550005822327093E77822327090E710B5002835
:1035600000D110BD01F072FCFBE7C04610B5002889
:1035700003D04A680B681100984710BDF0B54E465D
:10358000DE4657464546E0B595B0834689469246A5
:1035900098461E9A1F9B10001900209EFFF7B5FB4E
:1035A000002800D0D2E11E981F990122C44B52423C
:1035B000FFF790FB002800D001E11E981F9901221F
:1035C000C04B5242FFF79CFB002800D0D6E01E986B
:1035D0001F990022BC4BFFF793FB002800D0B5E0F9
:1035E0001E981F990022B94BFFF774FB002800D0EA
:1035F000ACE01E981F9900220023FFF76BFB002808
:1036000000D0D1E000230B93229B5B0500D406265B
:103610000024302306E006AA013417321355013E78
:10362000202C01D0092EF6D81E981F99FFF796FB83
:10363000A74BF2009B180CCB050008920993FFF7EB
:1036400075FB02000B001E981F99FFF7D8FA089A25
:10365000099BFFF7F8FA06900791FFF7A3FB070015
:10366000FFF760FB02000B0006980799FFF7C7FA07
:103670000022984B06900791FFF742FB002800D1EB
:10368000E9E001373800FFF74DFB02000B00089816
:103690000999FFF725FB002801D000270135002EEE
:1036A00000D1B7E0069513E0172306AA9B180A215C
:1036B000380001341D19FFF767F8303129703800E0
:1036C0000A21013EFFF760F8092F00D8E1E007006A
:1036D000202CE9D1069D20240CAB0693172706ABBE
:1036E000FF180DE028000A21FFF726F801343031D9
:1036F000280039550A21FFF71FF8051E00D1B7E051
:10370000202CEFD10323229A1340012B17D1219BA8
:10371000002B14D00B9B002B00D1E3E0219B013B3D
:103720002193202B0BD93023219A06E006A90134DE
:1037300017310B55944200D3A0E0202CF6D1229BE8
:1037400001940393219B0293069B21E0229B524606
:103750000493219B4946039358461E9B1F9C029647
:1037600000930194434600F043F90400200015B093
:10377000F0BCBB46B246A946A046F0BD229B5B0703
:103780000FD40322544B2299019203912199029163
:1037900000935246434649465846FFF79FFD0400B2
:1037A000E4E704224D4BEEE71E9A1F9B0020002108
:1037B000FFF725FA01231E901F910B9324E70223A4
:1037C000229A54461A40229B06929B0700D1ACE0F5
:1037D0002600434D08942F1F3200E878434649469F
:1037E000013DD8470136BD42F6D1089C069B043402
:1037F000002BBBD05746219AE31B9A42B6D915003D
:1038000022004346494620200134D847E31BAB42FF
:10381000F6D3ABE72800FFF789FA02000B001E98E9
:103820001F99FFF7ECF92B4B002206000F00FFF762
:1038300051FA0CAB0693002800D04FE7002230006D
:103840003900244BFFF75CFA002800D046E701233B
:1038500001359D4342E70022069807991D4BFFF76B
:1038600039FA002800D01AE7002F59D1013716E79E
:103870000323229A1340012B00D1A6E0202C00D173
:103880005DE70B9B002B3AD02D23069A135501348C
:1038900055E7069D202C00D11DE73023361906E0A0
:1038A00006AA013417321355202C00D113E7A64283
:1038B000F6D12E230CAA0134069293550EE7C0468A
:1038C000FFFFEFFFFFFFEF7F65CDCD4165CDCDC1A0
:1038D000804702100000E03F081802100018021094
:1038E000101802100C23229A134257D0219B013B3F
:1038F0002193A34200D916E7202C00D11FE7229B79
:103900005B0704D52B23069A1355013417E7229B36
:103910001B0700D413E72023069A135501340EE742
:10392000FB0700D4BBE60137B9E6219B042B00D886
:103930004EE755464F46043CE4182A0043460135FD
:1039400039002020D847AC42F7D141E70227229B1B
:1039500055461F409B0726D006975F46234EEC1C1A
:103960002A00B078434649460135B847013EAC428B
:10397000F6D1069F002F00D1F8E65746219AE31BA7
:103980009A4200D8F2E6150022004346494620201C
:103990000134D847E31BAB42F6D3E7E6219BA342B1
:1039A00000D9C0E6CBE6219B032BD5D90697544618
:1039B0004F46033DED1822004346013439002020D4
:1039C000D847A542F7D1069FC6E7219B002B00D11F
:1039D00054E70B9B002B85D0219B013B21939C42FC
:1039E00000D2A0E6202C00D04EE7A8E60C1802106A
:1039F000F0B54546DE4657464E46E0B59BB0249CA2
:103A0000259D824688469346994622002B00200039
:103A10002900FFF77AF9002800D0C1E00122200038
:103A200029007C4B5242FFF76BF9002800D0B7E029
:103A3000012220002900784B5242FFF74BF9002861
:103A400000D0ADE00022002320002900FFF742F95A
:103A5000002800D0BBE108940995089809998023B3
:103A6000289ADB001A400F928022289E12011640ED
:103A700032000E96289E0F000A901E4200D0A4E04D
:103A80000B00034300D0CBE0002A00D012E232004A
:103A900006332693022313400C930223134200D0D3
:103AA0000AE2279B042B00D215E200270426043BE0
:103AB0000E930022002320002900FFF70BF90028B5
:103AC00000D0C8E1554B289A134004930E9B0393F2
:103AD000269B0293089B099C0093019441464B4608
:103AE0005A465046FFF74AFD02002020289B002539
:103AF000034059424B415B421840531C08934146D6
:103B00004B464530D047FB17FC185C40FB0F1F2786
:103B10000A93731E0E930AABFF1806E020000A21D9
:103B2000FEF732FE0400202D08D00A212000FEF707
:103B30002BFE013530317955092CEFD8052306933A
:103B40000E9B56460593002304930A3303930A9B66
:103B50004146029312AB009330004B46089A019500
:103B6000FFF710FC0C9B002B28D05F46279BC41B43
:103B7000A34223D982461D003A194B4641462020D4
:103B80000134B047A542F7D850465946279C421AFF
:103B900001320023944200D395E1013018180DE062
:103BA000289B009401950493279B0393269B0293E3
:103BB0004B465A4641465046FFF7E0FC1BB0F0BC6E
:103BC000BB46B246A946A046F0BD01432AD10E9B92
:103BD0003200002B00D15DE70027269B0026BB4268
:103BE00000DD82E10022002320002900FFF772F8A7
:103BF000002800D04BE1289B084A02961A408023F7
:103C0000DB0013430493279B0393089B099C0093B9
:103C10000194CDE7FFFFEF7FFFFFEFFFFFF7FFFF0F
:103C200006232693B24B7800400DC018FFF77EF8AC
:103C3000B04AB14BFFF707F8B04AB14BFEF7E4FFCB
:103C40003F03B04B3F0B3B430C900D9100220A9871
:103C50001900AD4BFEF7D3FFAC4AAD4BFEF7F3FFB7
:103C600002000B000C980D99FEF7CEFFFFF776F8D7
:103C70000700FFF75BF8A74AA74B0A900B91FEF7E6
:103C8000E2FF0022A54BFEF7BFFFFFF767F8A44A4B
:103C900006000A980B99A34BFEF7D5FF0A900B91EB
:103CA0003000FFF743F8A04AA04BFEF7CCFF02001C
:103CB0000B000A980B99FEF7A2FF02000B000A9076
:103CC0000B91FEF7C0FF0C900D910A980B99020022
:103CD0000B00FEF799FF0022109011910C980D999E
:103CE000934BFEF796FF0022924BFEF78DFF0200EA
:103CF0000B000C980D99FEF78CFF00228E4BFEF7FF
:103D000083FF02000B000C980D99FEF782FF0A9AC0
:103D10000B9B0C900D9180210020C905FEF76FFFD1
:103D200002000B000C980D99FEF76EFF02000B00CD
:103D300010981199FEF76DFF0022724BFEF764FF99
:103D40007E4B0022F6183305FEF77DFF02000B00C4
:103D50000A900B9108980999FEF7BCFF002808D03B
:103D60000A980B990022734BFEF753FF0A900B91B0
:103D7000013F0A990B9A0B0011003A006332C62AE0
:103D800012D802222898042610400E9A0C90002A7D
:103D900026D1279B042B05D9002800D0A1E0279B22
:103DA000043B0E93042642E00222289810400E9A0B
:103DB0000C90002A13D1279B052B00D889E00028FE
:103DC00000D084E0279B0526053B0E9332E080233C
:103DD0001B069C46AC446346089409933DE60526C1
:103DE0000B4300D1F9E608980999554A554BFEF75F
:103DF0007FFF002808D0089809990022524BFEF74F
:103E000069FF002800D0E8E6269B002B34D00F9BEA
:103E1000002B31D0269B013B2693279BB34204D92C
:103E20000C9B002B59D002230C9300230E93002FE0
:103E300000D13EE60A9A0B9B08980999FEF7E9FE25
:103E4000002208900991002320002900FEF742FF7C
:103E5000002800D136E6089C099D289A80203B4B1B
:103E600000061340220004930E9B0393269B0293AB
:103E70002B180092019331E6279BB342D5D90C9BB6
:103E8000002B2AD000230E9302330C93CFE7289BFC
:103E90002E4A8020089C099D1A408023DB00134392
:103EA00022000493279B000603932B180092019392
:103EB00002967DE6052695E600230E930233002741
:103EC00004260C93F5E54B1E1B191B1A65E602230D
:103ED0000C930526AEE70423E7E5279B9B1B0E9377
:103EE000A5E7022304260C93A1E7DB1B5E1E79E6FF
:103EF00001FCFFFFFB799F501344D33FB3C8608B95
:103F0000288AC63F0000F03F0000F83F61436F631E
:103F1000A787D23F71A379094F930A400000E03F81
:103F20001655B5BBB16B0240EF39FAFE422EE63FA3
:103F300000002C400000244000001840FF03000057
:103F40002D431CEBE2361A3F80842E41FFF7FFFF22
:103F5000F0B55746DE464E464546E0B5A3B01F00D5
:103F60002C9B92460C93C94AC94B8B460B901A6006
:103F7000002900D1BFE1002338789946002800D1FC
:103F8000C1E1C44B4C460993C34B0E935B460A9365
:103F900008E0220053460A990B9DA847013438785F
:103FA000002876D001372528F3D110239B46083B03
:103FB0009946043B9846033B002602259C463878E8
:103FC000791C0300203BDBB2102B03D8099A9B001D
:103FD000D3589F460300303B092B36D900252A28A9
:103FE00000D1A7E000230D932E283FD00300683BAB
:103FF000DBB2122B1BD80E9A9B00D3589F46634608
:104000000F001E43DBE70F002E43D8E743460F00A7
:104010001E43D4E75B460F001E43D0E74B460F001C
:104020001E43CCE7802378785B001E4301310F00EC
:10403000672845D82428ACD90300253BDBB2422BA6
:10404000A7D896499B00CB589F460025AB005D1929
:104050006D002D1808780F000300303B303D013112
:10406000092BF3D900230D932E28BFD130228020B5
:1040700052429046C000064378780B008044424686
:10408000092A00D851E12A2800D15EE10F00013150
:10409000ACE70A9BA1469B46CA4503D801235B4275
:1040A0005344994653464A46594600200B9DA8471B
:1040B000200023B0F0BCBB46B246A946A046F0BDE6
:1040C0000300693BDBB20F2B00D962E70121994065
:1040D0008846734A11408B46110042460A4200D07E
:1040E00013E10A2B2FD0072B00D052E70C9D01CDF6
:1040F000002800D134E121231E43B0461F260D9A2B
:1041000012ABF618A14694465946340002E0000965
:1041100020290AD00F26064032003732092E00D857
:10412000073A013162540F28F1D863464C468B465A
:104130000D9322E10C9B20CB002D52DB78780C9361
:104140000F0001314EE70C9B0D9904CB90469B4626
:10415000002900D128E1434618784144002801D1C4
:1041600000F029FC0D9A94460A0004E059780133C6
:10417000002900D195E19A42F8D163460D93434658
:10418000D31A0F93730500D46CE10F9B0D9A9342E1
:1041900000D90F9202231A0032400C92334200D110
:1041A00091E20C930D9BB9461E1943461B1BA84672
:1041B00022001F000B9D08E0541C53460A99A84793
:1041C000385D002800D163E122009642F4D14546D3
:1041D0004F4634000C9B002B00D097E15B460C93BC
:1041E000DDE60222787816430F006D420C93013110
:1041F000F8E678786C2800D159E180235B001E43F3
:10420000013114E780239B0078781E4301310EE7CB
:104210007878682800D150E1802301311E4306E7F9
:10422000672800D1C2E0472800D134E1452800D1F9
:1042300034E107210C9B0D9A07338B431900049638
:10424000039502920CC90B98009201930C912200E5
:1042500053460A99FFF7CCFB0400A0E6462800D19C
:10426000A8E007210C9B0D9A07338B431900049695
:10427000039502920CC90B98009201930C912200B5
:1042800053460A99FFF77AF9040088E6513F001077
:104290008C380020E04502102446021070460210BF
:1042A000419000002200534625200A990B9DA84703
:1042B000013474E60C9B04339B46631C9846B60796
:1042C00000D4FFE00C9B220018780A9953460B9EFD
:1042D000B0476419012D00D849E245460B9EB84607
:1042E0000A9F2A005346013539002020B047A542D5
:1042F000F7D1474672E7DB4B38780B93002399469A
:10430000002800D03DE60024C6E66F2855D000D82E
:10431000BCE21023782800D19EE09E430A239C46ED
:1043200000230F930A339B464DE000218A00521868
:10433000520001331118187830390200303A092A36
:10434000F4D90D911F00591C50E60C9BB87804CB92
:104350000237D143C9170A400D920C93791C45E6E8
:1043600010233000984311331843802380463000D7
:10437000DB0018401E4200D1C0E6434606930823E6
:1043800005930D9B220004931023039300230293B3
:104390005B4601931AAB00930A9953460B98FEF7BC
:1043A000F1FF0C950400FAE50139D4E680231B01E6
:1043B0001E433EE720231E4353E708239C46002369
:1043C0000F9308339B4680233000DB0018401E42C9
:1043D00000D11AE10D233100994380230A009B008C
:1043E0001A409146194200D0C3E180230A005B00C5
:1043F0001A4090460C9A04320F92194200D08FE274
:104400004B0600D597E10B0600D4E5E20C9B1B8818
:1044100099464B46002B00D005E210339943002803
:1044200000D100E2002398460D9B069104935B4661
:1044300003930023059502934346D9E0582808D0FA
:10444000622878D102239C4600230F9302339B46B7
:10445000B9E720231E43103B9C4600230F931033E3
:104460009B46B0E702231A0032400C92334200D13F
:1044700005E20C934346B9460B9E0A9FA8461D1BB6
:104480002200534639000134B047285D0028F7D197
:1044900045464F469EE680231B011E4320231E43B4
:1044A000C7E662460D9242469B1A0F936AE6C02306
:1044B0009B00B8781E43F91CB9E5C023B8781E43A9
:1044C000F91CB4E5012D00D84AE1631E9946A944C0
:1044D0004B4652462600A146BA461C001700A84685
:1044E0000B9D32003B00013620200A99A847A642C6
:1044F000F7D13B0057469A464C460C9B3200187841
:104500000A9953460B9D4444A84767E6A0460F9B73
:104510009D4200D862E62C190B9E4546B8460A9F7C
:10452000E41A2A005346013539002020B047A5423D
:10453000F7D1474652E680233200DB001A4090460E
:104540001E4200D1F3E011218E43B44698468023E9
:1045500062469B001A40934662461A4259D1802314
:104560005B001A4091460C9A04320F9262461A423E
:1045700000D0A0E163465B0600D5D4E063461B068D
:1045800000D412E20C9B00229B5ED8171918414000
:1045900089B2DA0F0C92002B00D187E188461F26E2
:1045A00012ABBB461495F71845464E46E046A14669
:1045B00006E028000A21FEF7E7F80500202E08D0C3
:1045C0000A212800FEF7E0F801363031B955092DEF
:1045D000EFD84C46C446B1465F46149D63460693E9
:1045E0000D9B059504930A2303930C9B02934B4662
:1045F00001931AAB220000930A9953460B98FEF7D9
:10460000C1FE0F9B04000C93C9E40C2331009943B5
:10461000E3E60822072191460C9B07338B4399441C
:104620004A460ACB08000C92DA0F9346184300D092
:1046300085E0002399464346002B2FD1002200231A
:104640001092119300231F26994612ABF6185B4671
:104650001495BB46E04637000F934E46A146109C8A
:10466000119D05E0D932001004000D00202E0CD061
:104670000A22002320002900FEF7C4F80136303258
:10468000BA55002DF0D1092CEED80F9B109411953E
:104690005F464C46C446B1469B46149D634606930E
:1046A0000D9B059504930A2303935B4602934B46A7
:1046B00001931AAB220000930A9953460B98FEF718
:1046C00061FE04006BE40F9B9D4200D896E18023BD
:1046D000DB000C930F9B2E19F61A43460F930D9B8C
:1046E000A84699465346BA461F000B9D22003B0040
:1046F000013420200A99A847B442F7D10F9B4546C0
:1047000098464B460D933B0057469A4643461878C9
:10471000002800D162E56B1C0F930C9B002B00D18D
:10472000A8E600233DE50C9B1B78190031E7102318
:104730009E43B4460BE70C9B1B78994669E6DA1753
:10474000129213924A401092129813990A005A40FA
:104750001192109A119B121A8B411092119371E7CA
:104760000C9B220018780A9953460B9CA04744469C
:1047700034E50822072690460C9B0733B343984440
:1047800042460C921A685B68149208931300089AC8
:10479000134305D11033994300239846002838D19C
:1047A00061208B0600D5412000231F2698465A46DB
:1047B00012ABF618030018920F9A0A3BB1461695F1
:1047C000179419974446664690469B46149F089D49
:1047D000159103E007000D00202C13D032000023B8
:1047E00038002900FEF70EF85B46D2B2D318092A2A
:1047F00001D8130030334A4601341355A845E9D196
:10480000BE42E7D9189BA0469B461599169D179C5A
:10481000199F0D9B069104935B4603930023059516
:104820000293434644E761208B0600D541201F26B2
:1048300012ABF21803000A3B0C934B464646A146C6
:10484000A8461C005D461491BB46170002E0040018
:10485000202E0DD029002000FDF796FF0C9BCB18D1
:10486000092901D80B0030330136BB55AC42EED2DA
:104870005F464C46AB4614994546B046D4E50F9B7F
:104880009D4200D926E701330F93F3E51023320050
:104890009A439446692800D0A2E080233200DB00CE
:1048A0001A4090461E4200D151E64CE64346002B8A
:1048B00000D093E673E60C9B1B68DA0F002B70D0D8
:1048C000D9175B184B4098461F2612ABF618A14625
:1048D00014955C464546BB46E04637000C9206E020
:1048E00028000A21FDF750FF0500202C08D00A21DE
:1048F0002800FDF749FF013430313955092DEFD833
:104900005F46C446A3464C46149D0C9A63460693E4
:104910000D9B059504930A23029203935B4667E679
:104920000C9B1B689846002B03D110339943002839
:104930002DD161208B0600D541201F2612ABF61821
:1049400003000A3B4A460C93149143463100A846A3
:10495000A1465E461400BB461D000F0002E00500A4
:10496000202C0DD031002800FDF70EFF0C9BCB183A
:10497000092901D80B00303301343B55B542EED242
:1049800023005F464C464546B346994614990D9B15
:10499000069104935B4603930023059502934B46CF
:1049A00026E64346002BB1D18EE70C9B1B68D81737
:1049B00019184140EDE580233200DB001A400F92C8
:1049C0001E420FD00230020032400F92304219D006
:1049D0000023A0460F939AE50C9B1B68994618E5A7
:1049E00016009BE402231A0032400C92334200D09E
:1049F0008CE5002D00D06DE6FFF7F0FB01330F933F
:104A0000FFF7D0FB0C93F4E70EB410B5012485B08A
:104A100007AA08CA01000392009204486242FFF705
:104A200097FA05B010BC08BC03B01847D13200108B
:104A300084460CB400B585B006AB0A0002CB05482D
:104A4000039300930B006146FFF782FA05B008BCA0
:104A500002B01847D132001000B585B00391012192
:104A600002900093034813004A4202A9FFF770FA2C
:104A700005B000BD6D3500100FB410B50C4984B001
:104A800006AA08CA0C680392002C0BD000920122DF
:104A90000848524202A9A047012004B010BC08BC3B
:104AA00004B01847180000F01BFA0020F5E7C046D4
:104AB0008C3800205D35001010B5094A03001468D9
:104AC00084B0002C08D0012200910648524203A96C
:104AD000A047012004B010BD00F002FA0020F9E761
:104AE0008C3800205D35001000BEFDE77047C046E1
:104AF000094A1368002B06D008491818884208D8BC
:104B0000106018007047064B04491818136088425B
:104B1000F6D901235B42F4E758340020000004205A
:104B2000DC16012010B5FFF7DFFFC04610B5844644
:104B30000C0082B01900002A0AD0074B01920093A2
:104B4000624623000548FFF797FF0120FFF7CCFFDF
:104B5000034B1A00F2E7C04618180210281802107A
:104B60007811021070B5FDF7BDFC074D074EB54238
:104B700009D20024013E761BB608013608CD013467
:104B80009847B442FAD170BD240F0210280F0210CA
:104B9000030010B5080011001B68984710BDC046FF
:104BA000F8B5437D07000D001600002B38D0002A11
:104BB0001ADD0B780A2B18D00020012E09D0012411
:104BC00021006B5C01340A2B1AD0B442F8D1864222
:104BD00003DD311A3B6828189847AD19013D2B7841
:104BE0000D3B5A4253413B75F8BD037D002BE3D189
:104BF00002210E483B689847012EEED00120DEE7E7
:104C00006B1E5B5C0D2BE0D0884203DA091A3B680F
:104C100028189847054802213B6898472000D4E7A8
:104C20000368110028009847DEE7C046D04702100D
:104C3000F8B50B680D005A1CCB180A601871802A51
:104C400000D0F8BD0E4B1C68002C15D00D4E0F1D6A
:104C500002E02469002C0FD02368002BF9D03368C0
:104C6000002B01D0A342F4D1200039002A68FFF7BD
:104C700097FF2469002CEFD100232B60E1E7C046A9
:104C8000AC330020B8330020F0B54646D6464F4638
:104C9000C0B582B090461C0006000D00FDF7D8F9A3
:104CA00000232F4A12184B41002B02DA01222D4B10
:104CB00052422D4908008A461CF096F881466B1C2A
:104CC00003D1300017F03EFA0500002C27D0274F03
:104CD000274B1C68002C18D04346002B21D1254BB4
:104CE000984602E02469002C0FD02368002BF9D0ED
:104CF00043461B68002B01D09C42F3D120002A00C0
:104D00003100B8472469002CEFD14B46002B23D14A
:104D1000280002B0E0BCBA46B146A846F0BD164F26
:104D2000D6E7144B984602E02469002CEDD02368A6
:104D3000002BF9D043461B68002B01D0A342F3D1CE
:104D40002A0031002000B8476B460A222000DA71A1
:104D5000D91D093AB847E7E750461CF03DF8D7E7B8
:104D600040420F00FFFFFF7F541B0020A14B0010AB
:104D7000AC330020B8330020914B00100A4A13686E
:104D8000002B05D10CE01A001B691032002B07D054
:104D90008342F8D1002902D1186910601961704767
:104DA0000029FCD01060FAE7AC33002010B500F009
:104DB000B3FA10BDF0B5CE464746040080B583B0C7
:104DC000FDF746F92600002736184F41002F02DA7A
:104DD00001261A4F76421A4B1A4D994601AB984656
:104DE0004B461C68002C03D116E02469002C13D01C
:104DF0002B68002B01D09C42F7D1A368002BF4D084
:104E00000121404698470028EFDD4346187803B05B
:104E1000C0BCB946B046F0BD0B4B5A6A974207D8A2
:104E20009B6AB34202D302204042F0E79742FAD194
:104E300001200021FDF716F9D2E7C046FFFFFF7FF2
:104E4000AC330020B833002000400540F0B5CE461A
:104E5000474680B583B06B460600DD1D2870FDF720
:104E6000F7F80023194A12184B41002B02DA0122ED
:104E7000174B52421749080089461BF0B5FF164BE5
:104E800080461C68002C14D0144F02E02469002CCA
:104E90000FD02368002BF9D03B68002B01D09C4237
:104EA000F4D1200001222900FFF77AFE2469002CAA
:104EB000EFD14346002B05D1300003B0C0BCB9464A
:104EC000B046F0BD48461BF087FFF5E740420F00B3
:104ED000FFFFFF7F541B0020AC330020B8330020BD
:104EE00070B5040017F02EF901230100050001221E
:104EF0002000FFF7C9FE084B1C68002C06D0636831
:104F0000002B05D098472469002CF8D1280070BDEB
:104F10002469002CF3D1F9E7AC330020F0B5CE467C
:104F2000474680B5A3B004000E00FDF791F80023BA
:104F3000264A12184B41002B02DA0122244B52421E
:104F400024481BF051FF00232200019380463300C8
:104F5000214801A9FFF780FD204F019B81463C6855
:104F6000002B19D0002C2FD01D4E02E02469002CFC
:104F70000FD02368002BF9D03368002B01D0A34257
:104F8000F4D12000019A02A9FFF70AFE2469002C3F
:104F9000EFD100233C680193002C06D06368002BFE
:104FA0000CD098472469002CF8D14346002B07D138
:104FB000484623B0C0BCB946B046F0BD2469EBE713
:104FC00004481BF009FFF3E70194EEE740420F00AD
:104FD000FFFFFF7F541B0020314C0010AC3300203A
:104FE000B83300200FB400B583B004A901C9019102
:104FF000FFF794FF03B008BC04B01847024B1860D9
:10500000024B19607047C046AC240020B024002039
:1050100010B5024B1878FCF7B9F810BDCF16012077
:10502000154B70B51A68002A22D0EFF3108172B6C2
:1050300010680028FCD0BFF35F8F00200F4A596032
:1050400010701B68BFF35F8F186081F31088002415
:1050500000250B4E3078FCF78DF8002804D1002491
:1050600000252900200070BD3078FCF78FF8F8E7A4
:10507000FA240025A400ECE77CD60020D1160120FC
:10508000CF16012070B5050000200E0001F086FB50
:10509000002834D0002001F097FB00282FD0FCF727
:1050A000D7FF0023174A12184B41002B16DB164C72
:1050B00020001BF099FE002821D0002001F06EFB9B
:1050C00000280FD101200021404200F097FD032568
:1050D0006D4220001BF080FE280070BD01220B4BAA
:1050E0005242E4E7002001F06FFB0028EAD02900DB
:1050F0003200002001F072FB051EEAD1E7E703252C
:105100006D42E9E740420F0054160120FFFFFF7F88
:1051100010B5FCF79DFF00230D4A12184B41002BE0
:1051200002DA01220B4B52420B481BF05DFE0028B5
:105130000CD001200021404200F060FD002001F071
:1051400091FB0028F5D104481BF046FE10BDC04677
:1051500040420F00FFFFFF7F54160120F8B5CE46F6
:10516000474680B505000C00FCF772FF0023344A67
:1051700012184B41002B02DA0122324B52423249C3
:10518000080088461BF030FE002803D1C0BCB94699
:10519000B046F8BD002001F001FB002848D00026F1
:1051A000002C41DD294B994613E0A919002001F09C
:1051B00095FB070001200021404200F01FFD002068
:1051C00001F050FBFCF744FF204BF61903C3B44237
:1051D0002ADD002001F0A2FBA71B0200B84200DD7F
:1051E0003A00002AE1D101200021404200F006FDF2
:1051F000002001F037FB002001F0D0FA002813D086
:10520000002001F08BFB0028E1D1FCF721FF4B4689
:105210000F000CCB002184460D4812184B419F42D1
:1052200002D8D4D19445D2D940461BF0D5FDADE784
:1052300000200021054B03C340461BF0CDFDA5E730
:1052400040420F00FFFFFF7F54160120F01D002099
:1052500020A1070030B5002185B028481BF004FECE
:1052600000281CD1264B1A68002A16D0EFF31081B3
:1052700072B610680028FCD0BFF35F8F012421486C
:10528000596002781B68D2B20470BFF35F8F0020B0
:10529000186081F31088002A17D005B030BD0120B6
:1052A0000021404200F0AAFC002001F08DFA050028
:1052B00012481BF091FD002DEFD0134B1B68002B03
:1052C000EBD0124A10689847E7E7FCF767FC040048
:1052D000FCF7BEFEFA220023920012184B41002B6D
:1052E00002DA01220A4B524201210291002101916E
:1052F000084920000091FCF755FCCEE75416012028
:105300007CD60020D1160120AC240020B02400203F
:10531000FFFFFF7F21500010D02310B51B0684B083
:105320001C68FCF73BFCFCF73BFDA04202D00020D0
:1053300004B010BD284B002100201B7801F0B4FC04
:1053400026480368002B44D00120FCF7A1F9FF2375
:10535000234C244920701840FBF732FF20780121AC
:10536000FBF7F6FE0520FBF71BFF002824D10822DF
:1053700000211D48FDF7A0FFFCF710FC0400FCF71E
:1053800067FEFA220023920012184B41002B02DA2A
:105390000122164B52420121029100210191144930
:1053A00020000091FCF7FEFB0028C0DB1148012122
:1053B000FFF7E4FC0120BBE70120FBF787FE0100BB
:1053C0000948FCF7E3F9002205200B49FBF722FF0F
:1053D000ECE7FCF7B1F9B7E7643606105416012084
:1053E000CF160120555200107CD60020FFFFFF7F12
:1053F00021500010501200201150001010B5002054
:1054000001F0CCF910BDC046004870474C4802106E
:1054100000487047F847021010B50400164803789A
:10542000002B20D0002C06D1144B15484380063B9E
:10543000FF3B038010BD052C1CD8124BA400E45880
:105440000F480123811C013C04E001330A80023132
:10545000142B0CD0E25C002AF7D1C022DBB25B0037
:1054600092001343E5E7112100F01EF8DAE7CA23A2
:105470009B00DEE70020DDE7941601200904000010
:10548000C42E0020E047021010B5024800F0FCF8DE
:1054900010BDC0464415012010B508220149FDF792
:1054A00011FF10BD4415012030B5012900D1BBE02A
:1054B000744B01391A78121114003034092A00DDB6
:1054C000B5E00470012900D1DAE00F221C782240F7
:1054D00014003034092A00D9ACE04470022900D10C
:1054E000CEE05A789446121114003034092A00DDB7
:1054F000A3E08470032900D1C2E064460F22224059
:1055000014003034092A00D99AE0C470042900D16B
:10551000B6E09A789446121114003034092A00DD5E
:1055200091E00471052900D1AAE064460F222240CF
:1055300014003034092A00D988E04471062900D1CA
:105540009EE03025AC46DC7822119444092A00DD27
:105550007FE062468271072900D191E00F2222404C
:1055600014003034092A00D977E0C471082900D129
:1055700086E03025AC461C7922119444092A00DDCE
:105580006EE062460272092900D179E00F222240C2
:1055900014003034092A67D844720A2900D16FE018
:1055A0003025AC465C7922119444092A5FDC6246BE
:1055B00082720B2964D00F22224014003034092A51
:1055C00059D8C4720C295BD03025AC469C79221185
:1055D0009444092A02DD0735AC46944462460273BE
:1055E0000D294DD00F22224014003034092A01D950
:1055F0003732140044730E2942D0DA7913111C009B
:105600003034092B01DD37331C0084730F2937D068
:105610000F2313401A003732092B01D830331A00F8
:10562000C27310292CD010300023037030BD3732E4
:10563000140046E7373214004FE73732140058E7BA
:105640003732140061E7373214006AE7373214004A
:1056500073E70735AC4694447BE73732140084E7A0
:105660000735AC4694448CE73732140094E707358D
:10567000AC4694449BE737321400C4720C29A3D182
:105680004018D1E74415012010B588B004000D2260
:1056900000216846FDF710FE0D22002104A8FDF749
:1056A0000BFE6A464B236846137004A900230D22A3
:1056B0001BF0BAFB1521082220006944FDF702FE09
:1056C00008B010BD7047C0460022014B1A707047E9
:1056D000CE1601204B790020FF2B0BD18B79002BAC
:1056E00008D1CB79012B05D1082A03D9024B8A783E
:1056F00009301A707047C046CE160120012070474D
:1057000010B5012913D115495379107909781B0275
:1057100003430020994200D010BD5378012B08D0DC
:10572000022BF9D1642200210020FCF725FE012084
:10573000F2E7D17893780902194380230A005B00CD
:105740001A40194206D00A06D20F480A032319400C
:10575000FCF79AFE01204042F8E7C046CE16012031
:1057600000487047084902109446012310B50129EA
:105770000AD152780023012A06D162461179527962
:1057800012020A43072A01D0180010BDA633614651
:10579000024A00F0EBFE0300F6E7C0466048021044
:1057A00001230370004870472C4902104B780A7897
:1057B0001B0213438A7810B512041A43CB781B06D8
:1057C00013439622D200934200D010BD0022012044
:1057D00011004042FCF758FEF8B500F03BF90C23ED
:1057E000194DFF22AB6705201849FBF713FD184C34
:1057F000402200212000FDF75FFD40270023012605
:105800002121144A66702783A260136063545F31BC
:10581000618445396354104A10496360E260278708
:10582000A1620B606362E2621BF0CEFA80239B05EB
:105830002E64EB6490230A4A0120EA508022094B2F
:105840005202DA64F8BDC046000011501D07002066
:105850005C34002084001050000110508000105073
:1058600010D001000020115010B501210520FBF7D8
:105870006FFC10BD10B500220021024800F00AF9AB
:1058800010BDC0467C340020044B1970002904D0A0
:1058900080219023024A8902D1507047BF1601200F
:1058A000002011500B785B0600D070474B78052B19
:1058B000FBD18A78014B1A60F7E7C046000011500F
:1058C000F8B5CE464746CB7880B59B079A0F1000B7
:1058D000012A58D08C780A794B797F211B0221400C
:1058E000E50913434A0091462C4E52195201B21851
:1058F000947001246C40547000245B055B0DD470DF
:105900001383D076CA00012D2CD0254FD2198F01D8
:10591000BC46B4446746BA60146000292CD0214AC2
:10592000C900891879603F339B09022832D09A0157
:105930004B461D4C5B1921685B01F6181B4B8A18FE
:10594000F16022609A4227D8194A83064A401343DD
:10595000802212061343726813600120C0BCB9464E
:10596000B046F8BD134FD2198F01BC46B444674608
:10597000BA621460002908D100236D0175196B60AB
:105980000D4BEB60E9E70020E8E7094AC9008918F8
:105990007962C8E7DA01CBE7FCF79EFD5C340020B2
:1059A000840010500400105074D60020FF0F1050D7
:1059B00000001050800010500001105010B51BF076
:1059C00003FA10BD7F2010B508404000C9094018F7
:1059D0001100044A400180181A0000F05BF8012011
:1059E00010BDC0465C3400207F23180000B508407D
:1059F00083B00B4204D14B424B41084A01339366BA
:105A00008022C9094000064B401840010021C018FF
:105A100012011BF019FA03B000BDC046002011505E
:105A20005C3400207F22130010B50B400A4200D1E5
:105A300010BDC9095B005B1804485B01C018002356
:105A400000220349C3701BF0FFF9F1E75C3400202A
:105A5000FFF7FFFF80220A4B520410B51A60094B72
:105A600009491A6010000B689843FBD1802200217D
:105A700052010648FDF720FC0922054B5A6710BD6C
:105A800000E0004000F0004008C00040000010505E
:105A900000001150002310B5C38201338282837647
:105AA000016104001BF0F0F9002804D0802190234C
:105AB000074A8902D15020001BF09EF9002802D02D
:105AC0000123237710BD20001BF09EF9FAE7C046A2
:105AD000002011507047C0467047C04600207047F4
